:020000040800F2
:10000000E80E0020490100086D1B0008691900086E
:1000100000000000000000000000000000000000E0
:10002000000000000000000000000000891B000824
:1000300000000000000000006F1B00088B1B000880
:100040005B010008000000005B0100085B01000884
:100050005B0100085B0100085B0100085B01000810
:1000600000000000DD0300085B0100085B010008E0
:100070005B0100085B0100085B0100080000000054
:100080005B01000800000000000000005B010008A8
:10009000000000005B0100085B0100085B01000834
:1000A0005B0100085B0100085B0100085B010008C0
:1000B0005B010008000000000000000000000000DC
:1000C00000F002F800F030F80CA030C8083824180E
:1000D0002D18A246671EAB4654465D46AC4201D180
:1000E00000F022F87E460F3E0FCCB6460126334282
:1000F00000D0FB1AA246AB46334318474824000001
:10010000682400000023002400250026103A01D3B3
:1001100078C1FBD8520700D330C100D50B607047BF
:100120001FB51FBD10B510BD00F0FAF81146FFF75E
:10013000F7FF02F0AFF900F012F903B4FFF7F2FF96
:1001400003BC00F019F90000074880470748004742
:10015000FEE7FEE7FEE7FEE7FEE7FEE704480549A7
:10016000054A064B70470000FB1B0008C100000851
:10017000E8080020E80E0020E80A0020E80A002035
:1001800001E004C0091F0429FBD28B0701D50280BE
:10019000801CC90700D00270704700290BD0C3072C
:1001A00002D00270401C491E022904D3830702D5E5
:1001B0000280801C891EE3E70022EEE70022DFE7D1
:1001C000002203098B422CD3030A8B4211D3002354
:1001D0009C464EE003460B433CD4002243088B422E
:1001E00031D303098B421CD3030A8B4201D39446BB
:1001F0003FE0C3098B4201D3CB01C01A52418309AE
:100200008B4201D38B01C01A524143098B4201D367
:100210004B01C01A524103098B4201D30B01C01A92
:100220005241C3088B4201D3CB00C01A524183080C
:100230008B4201D38B00C01A524143088B4201D339
:100240004B00C01A5241411A00D201465241104699
:1002500070475DE0CA0F00D04942031000D340420E
:10026000534000229C4603098B422DD3030A8B4244
:1002700012D3FC22890112BA030A8B420CD38901E2
:1002800092118B4208D3890192118B4204D38901C8
:100290003AD0921100E08909C3098B4201D3CB0106
:1002A000C01A524183098B4201D38B01C01A5241BB
:1002B00043098B4201D34B01C01A524103098B42BF
:1002C00001D30B01C01A5241C3088B4201D3CB00AA
:1002D000C01A524183088B4201D38B00C01A52418D
:1002E000D9D243088B4201D34B00C01A5241411A64
:1002F00000D20146634652415B10104601D3404292
:10030000002B00D54942704763465B1000D3404242
:1003100001B50020C046C04602BD70477047704717
:10032000754600F025F8AE46050069465346C008FC
:10033000C000854618B020B5FFF710FF60BC00274D
:100340004908B6460026C0C5C0C5C0C5C0C5C0C5A1
:10035000C0C5C0C5C0C5403D49008D46704710B5F9
:100360000446C046C0462046FFF7E7FE10BD000029
:10037000004870478408002001491820ABBEFEE702
:1003800026000200704770B58C180578401C6B077A
:100390005B0F01D10378401C2A1106D10278401C62
:1003A00003E00678401C0E70491C5B1EF9D12B0738
:1003B00005D40023521E0DD40B70491CFAE70378B4
:1003C000401CCB1A921C03E01D780D70491C5B1C6D
:1003D000521EF9D5A142D8D3002070BD10B50248F5
:1003E00000F056F810BD00009407002010B5044638
:1003F000006C09498008800040186064207814214E
:100400000838FFF7DDFE04498031A164C106C90E3A
:1004100001208840E06410BD000802400179084BCB
:100420008906890E8A00D2180265054A4432491E9F
:1004300042658A07920F0121914081657047000053
:10044000FC080240F0B5846CC56C6560046D002C3E
:1004500002D0446D856D65600B4C6568066C1C2789
:100460003E400127B7403D43656004686360836890
:10047000102B036803D099600068C260F0BD9A60D9
:100480000068C160F0BD00000000024072B6FEE7E7
:10049000F0B42C490C6802681368056C1C273D40B9
:1004A0000426AE40264211D05E070FD513689B0686
:1004B00003D4146804239C4314604B68046C042226
:1004C0003C40A24013434B60016B1CE00227AF404D
:1004D000064627402036002F19D09F0717D51368EE
:1004E0009B0605D413680A24A3431360012272718A
:1004F0004B68046C1C2214400222A24013434B6040
:1005000000213171C16A00291AD0F0BC08470827C0
:10051000AF40274214D01B0712D513680E24A34303
:1005200013604B68046C1C22144001221546A54040
:100530002B434B60C263727100213171416BE2E762
:10054000F0BC70470000024070B504003FD0254861
:10055000256814212818FFF733FE8000206402204C
:1005600026462036707128681F4908402860E168D7
:10057000A06862690843216911430843A1690843DF
:10058000E1690843216A084321680A68104308604A
:100590002046FFF72BFF0121A06889030025884230
:1005A00000D165602079616C8006800E0860A06CC7
:1005B000E16C41606068401E03280AD82046FFF7BE
:1005C0002DFF206D0560606DA16D416004E001208C
:1005D00070BD25656565A565E563012070713571A0
:1005E000002070BDF8FFFDBF0F80FFFFF8B5044687
:1005F0008C4620300179002501290BD00126067197
:1006000041790027012907D08021E1630771012585
:100610002846F8BD0220F8BD02214171E763206839
:10062000016849084900016061462046FFF70AFF5A
:10063000206B00282068016801D00E2205E004220A
:1006400091430160206801680A2211430160606CD7
:100650000168CA03074902D502680A430260206D97
:10066000002802D002680A43026020680168314312
:100670000160CDE700010000F0B5002303249AE0FB
:100680002A4601259D402A407ED00E79B607B60F36
:10069000012E01D0022E16D186682746B4465E0090
:1006A000B646B7406646BE43B446CF687646B740C6
:1006B0006646374387604668AE430D79ED06ED0F19
:1006C0009D40354345600D79ED43AD0708D0C568C1
:1006D0005F002646BE40B5438E68BE402E43C660CE
:1006E0000D79AD07AD0F022D0ED1DD08AD002D182F
:1006F000AC462D6A5E07F60E0F27B740BD430F6963
:10070000B7402F4365462F6205685F002646BE400E
:10071000B5430E79B607B60FBE402E4306604D684E
:10072000AD03AD0F46D09E08264DB6007519AC46F8
:100730002D6E9E07F60E0F27B740BD4305273F07D6
:10074000B84201D100270FE01F4FB84201D1012765
:100750000AE01E4FB84201D1022705E01C4FB84203
:1007600001D1032700E00527B7402F43154D66460A
:1007700037662D684E689543F60200D51543114F34
:100780003D607D68954300E014E04E68B60200D5F8
:1007900015437D600B4D80356E684F689643BF03EF
:1007A00000D516436E602E684F689643FF0300D550
:1007B00016432E605B1C0A681546DA4000D05FE7DE
:1007C000F0BD000000180240000400500008005076
:1007D000000C0050002A01D081617047816270478F
:1007E00001488068704700000000002070B5024694
:1007F00040325378202B1CD11378012B19D00123C0
:10080000137024245470046825689D43256004688F
:1008100025681E03B5432560046825680D432560DF
:10082000006801681943016020205070002010709A
:1008300070BD022070BD70B5024640325378202B47
:100840001BD11378012B18D001241470242353706A
:1008500003681D68A5431D6005682B680F263602D6
:10086000B34309021943296000680168214301600C
:10087000202050700020107070BD022070BD00005C
:1008800070B5040006D0254640356878002600285B
:1008900002D005E0012070BD2E70204600F04EF819
:1008A00024206870206801684908490001600F2110
:1008B0006068090688432168086121688A68012008
:1008C000C00382438A60E1680129A1682FD02122F8
:1008D00092021143226891600121E268C902022A52
:1008E0002268536825D08B43536021684A68124BB5
:1008F0001A434A602168CA688243CA6061692069F4
:100900000843A169090208432168C860216AE069B7
:1009100008432168086020680168012211430160D2
:100920006664202068702663AE70002070BD0143AD
:10093000D0E70B43D8E700000080000210B586B076
:10094000044614216846FFF739FC124920688842A2
:100950001ED1114C606B012108436063606B08403D
:1009600005900320C0020090122001900020029008
:10097000039006200490052069460007FFF77CFEDF
:10098000E16B012080050143E163E16B01400591CA
:1009900006B010BD005800400010024002488168B7
:1009A00002788918816070470000002010B508485F
:1009B00000240168821511430160032000F00AF849
:1009C000002801D0012401E000F028F8204610BDE5
:1009D0000020024070B50F4E0024317805460029F2
:1009E00015D07D20C000FFF7EBFB01460A480068E8
:1009F000FFF7E6FB00F09EFC002808D1042D06D28C
:100A000000222946401E00F02BF8756000E001240A
:100A1000204670BD000000200C00002008B50948E9
:100A200001680122114301600068104000900548F0
:100A30004038C26B01040A43C263C06B0840009097
:100A400008BD000040100240002805DBC106C90EA9
:100A500001208840014908607047000000E100E083
:100A600010B501F0F5FC10BD10B50F4C2168032244
:100A70005202914301432160C11FFF39FA390ED15F
:100A80000A480621006848430949FFF799FB401CC2
:100A900002E0002805D0401E61694905F9D4002014
:100AA00010BD032010BD0000007000400C000020AD
:100AB00040420F00F8B50446006800264D4D800303
:100AC00058D54C4800274038C06BC00009D449486D
:100AD0004038C26B01040A43C263C06B084001275F
:100AE000009045480168821511430160FFF778FEC8
:100AF000009005E0FFF774FE0099401A022825D8FF
:100B00003D480068C005F5D5E869032109020840A1
:100B10000FD0616981420CD0E86903210902EA69BA
:100B20008843012109040A43EA61EA698A43EA61C8
:100B3000E861C0070FD0FFF753FE009008E0FFF711
:100B40004FFE0099411A2D48814201D9032609E040
:100B5000E8698007F3D5E8690321090288436169E0
:100B60000843E861002F05D022484038C26B0104D9
:100B70008A43C2632078C00705D06869616880082D
:100B80008000084368612078800606D568690321E3
:100B900009038843A168084368612088400411D58F
:100BA0006869216980008008084368610121206923
:100BB0008907884206D10F484038C16801221204D3
:100BC0001143C1602088000512D56869032189039B
:100BD0008843E168084368610121E068890388422D
:100BE00006D104484038C168012212041143C16093
:100BF0003046F8BD401002400070004088130000ED
:100C0000F8B50F46060043D04D4D28684007400F09
:100C1000B84213D22868C008C00038432860FFF7E4
:100C2000DFFD044605E0FFF7DBFD011B454881427F
:100C300061D828684007400FB842F4D13068424C70
:100C400081070DD5400704D5A06807210903084393
:100C5000A060A0680F2109028843B1680843A06022
:100C60003078C00732D0706801280AD002280BD033
:100C700000280FD03449403103280ED0C9698907B4
:100C800004E02168890301E021688901002906DB6D
:100C90000120F8BD21684905F8E7096AEFE7A16876
:100CA000C908C9000143A160FFF79AFD009006E062
:100CB000FFF796FD0099411A224881421BD8A0688F
:100CC000382108407168C9008842F1D1286840077E
:100CD000400FB84217D91A480168C908C9003943FA
:100CE0000160FFF77DFD054607E0FFF779FD411B39
:100CF0001448814201D90320F8BD1148006840071B
:100D0000400FB842F1D13078400706D5A0680721DE
:100D100009038843F1680843A06000F031F8A16836
:100D20003C2289091140094A515CC906C90EC840D4
:100D30000749086007480068FFF74CFEF8BD00004F
:100D4000002002408813000000100240E424000844
:100D50000C0000200400002006480749006889684C
:100D6000064A4904490F8900515CC906C90EC840AA
:100D7000704700000C0000200010024024250008ED
:100D800010B5204CA068204A8006400F16D0A068FD
:100D90008006410F501001290FD0A1688906490F24
:100DA000022912D0A0688006400F042823D0A06832
:100DB0008006400F032821D0002010BD20680121AB
:100DC0008004400F8140104612E0E1688B07E16823
:100DD0009B0F4906490F491C032B00D01046FFF713
:100DE000EFF9E1684904490E4843E168490F491C9D
:100DF000FFF7E6F910BD0120C00310BD7D20000201
:100E000010BD0000001002400024F400F8B50400FA
:100E10007ED020783827C007E94D002846D0A86842
:100E2000E96838408907890F102802D008280BD0BC
:100E300001E0032908D001206268000482420AD13F
:100E400029680143296015E0286880032ED5606871
:100E50000028DDD02AE0052301211B0489049A42E1
:100E60002A6802D10A432A60EAE782432A60286896
:100E700088432860606800280CD0FFF7B1FC064664
:100E800004E0FFF7ADFC801B642873D8286880035A
:100E9000F7D50BE0FFF7A4FC064604E0FFF7A0FC43
:100EA000801B6428F1D828688003F7D42078800755
:100EB00069D5A868E96838408A070721920FC902F6
:100EC000102802D0002813D001E0022A10D0E068D8
:100ED000002846D02868884321690843286028688C
:100EE000FF21013108432860FFF77AFC06462CE019
:100EF0002A68520502D5E268002A89D06A687F23F1
:100F00001B029A4363691B021A436A60002800E0CF
:100F10008DE00ED12868884321690843286028683D
:100F200001218004400F8140A648FFF749F9A649F6
:100F30000860A6480068FFF74DFD002877D122E041
:100F4000FFF74EFC801B02289FD828684005F7D584
:100F500068687F2109028843616909020843686063
:100F600011E02968FF20013081432960FFF738FC38
:100F7000064605E098E0FFF733FC801B022884D882
:100F800028684005F7D42078914E00072ED5A86830
:100F90008006400F03280AD0A0690028306A16D0C6
:100FA000012108433062FFF71BFC07460BE0306A63
:100FB00080071BD5A06900289FD017E0FFF710FC21
:100FC000C01B022870D8306A8007F7D50EE04008B1
:100FD00040003062FFF704FC074604E0FFF700FC26
:100FE000C01B022860D8306A8007F7D420784007F9
:100FF0006CD5A86800278006400F042818D0E86B3D
:10100000C00008D4E96B012000070143E963E96BE4
:101010000140012700916F480168C90519D4016892
:10102000821511430160FFF7DBFB00900DE083E0C8
:10103000F06980074AD5A06800287DD046E0FFF718
:10104000CFFB0099401A02282ED862480068C005DC
:10105000F5D5A168012910D004200529F16911D026
:1010600049084900F161F1698143F161A0680028F4
:1010700016D0FFF7B5FB00900EE0F06901210843A0
:10108000F061F3E70143F161F7E7FFF7A9FB00998E
:10109000411A5148814265D8F0698007F5D50EE0C4
:1010A000FFF79EFB009007E05CE0FFF799FB0099DB
:1010B000411A4948814255D8F0698007F5D4002F7C
:1010C00004D0E96B012000078143E963E06900284F
:1010D00073D0A9688906490F02294DD0012636062A
:1010E0000228286805D0B0432860FFF779FB044642
:1010F0003AE0B0432860FFF773FB074604E0FFF7D0
:101100006FFBC01B02282DD828688001F7D4616AC4
:10111000206AA26A0843E16A120211430843216B64
:101120000843E9682D4A11400843E86028683043C5
:101130002860E868012100E03DE009070843E86015
:10114000FFF74EFB044604E0FFF74AFB001B0228B2
:1011500008D828688001F7D52FE0FFF741FB001B76
:10116000022801D90320F8BD28688001F5D4E86879
:101170001B490840E86020E00128F4D0E868226AB2
:101180008107890F914216D17021626A0140914214
:1011900011D17F21A26A09020140120291420AD1B3
:1011A0001F214904E26A0140914204D1400F216BA2
:1011B0004007884201D00120F8BD0020F8BD0000A2
:1011C000001002400024F4000C0000200400002065
:1011D0004010024000700040881300008C80C11F46
:1011E000FCFFFEEFF8B504000CD0606A0025002873
:1011F0000AD02561656126464036A562707F0028C9
:1012000008D00BE00120F8BD6168C81FFD38F2D09E
:10121000E561F0E73577204600F05CF8022272774E
:10122000206801684023994301600723E1681B029D
:10123000994201D9002001E0012000030F273F025D
:10124000B94202D0994200D0A562FF2361680533FC
:1012500019402127A368BF023B401943236913406B
:10126000227D1943D207D20F11430123A2695B02E9
:101270001A401143E26938231A401143226A80233D
:101280001A401143A26A9B011A401143226811605F
:10129000A1690422090C1140626A10231A4011430B
:1012A000626B08231A4011430F23E2681B021A40A5
:1012B000114301221203104001432068416020685D
:1012C000C16952109143C1612566012070770020E9
:1012D000F8BD000010B586B0044614216846FEF73C
:1012E0006DFF1249206888421DD11148026881149F
:1012F0000A4302600068084005900D484038416B81
:10130000012211434163406B69461040059046201D
:10131000009002200190002002900390049005208C
:101320000007FFF7A9F906B010BD0000003001402A
:1013300040100240094910B5401E884201D90120E1
:1013400010BD074C60610321081F01F081F80020E7
:10135000A06107202061002010BD0000FFFFFF00FA
:1013600000E000E0F0B5034620331A7F012A24D0C4
:1013700001221A7702225A7704686268A568104F22
:10138000BC4205D116460F22120596434A683243E5
:101390007026B2430E68164366600068B84202D0F9
:1013A000084A904204D1802289689543294381608C
:1013B0000120587700201877F0BD0220F0BD000012
:1013C000002C0140000400407047000010B586B0BA
:1013D000044614216846FEF7F1FE0C492068884255
:1013E00012D10B494A6B022002434A63496B0090B9
:1013F000014001900020029003900120059104908B
:1014000069460448FFF738F906B010BD00040040F3
:101410000010024000040050F8B5044600202646A3
:1014200020360090307F0D4601280CD0012008277F
:1014300030770C2A48D008DC002A10D0042A1ED0AD
:10144000082A06D130E00220F8BD102A52D0142A12
:1014500060D001200090002030770098F8BD20680F
:1014600000F096FC206881693943816120688169B8
:10147000042291438161206881692A6911E0206812
:1014800000F0C4FC206881690122D202114381610D
:1014900020688169521091438161206881692A69BD
:1014A000120211438161D6E7206800F0EDFC20684C
:1014B000C1693943C1612068C16904229143C16196
:1014C0002068C1692A6912E0206800F01BFD2068CD
:1014D000C1690122D2021143C1612068C2690121A0
:1014E00089028A43C2612068C1692A6912021143D4
:1014F000C161B0E7206800F039FD2068416D3943D3
:1015000041652068426D04218A4342652068416D2F
:101510002A6912E0206800F057FD2068416D012221
:10152000D202114341652068426D012189028A433C
:1015300042652068416D2A691202114341658AE7BC
:1015400070B5040005D025462035687F002802D0FC
:1015500006E0012070BD00202877204600F016F834
:1015600002206877211D206800F048FB01224034EA
:101570002272AA77EA7722706270A270E2702271FA
:101580006271A271E2716A77002070BD38B50546BC
:1015900000681349884222D11248C26B02210A43D3
:1015A000C263C06B114C084000900F48206023209C
:1015B00060601020A060802121610020E06089002F
:1015C00061618900A1612021E16120622046FEF76E
:1015D000BBFF002801D0FEF759FF2C63A56238BD80
:1015E0000004004000100240080002409407002060
:1015F00070477047F8B5044600200D46009021461C
:101600002046203140309446002D0ED0042D11D0BC
:10161000082D14D00C2D17D0102D1AD0C278022A04
:101620001CD0C278012A1BD071E08A7F022A15D013
:101630008A7FF7E7CA7F022A10D0CA7FF2E70278D2
:10164000022A0BD00278EDE74278022A06D04278CF
:10165000E8E78278022A01D08278E3E70220F8BD29
:101660006246002A53D0002B51D00226494F4A4AE5
:10167000002D09D0042D18D0082D27D00C2D36D0E0
:10168000102D46D0C67045E08E77606AC762606AEA
:101690000263616A41484863226861463432606A85
:1016A000FEF7A4FF002832D137E0CE77A06AC762E8
:1016B000A06A0263A16A39484863226861463832E9
:1016C000A06AFEF793FF002821D12BE00670E06AA4
:1016D000C762E06A0263E16A304848632268614693
:1016E0003C32E06AFEF782FF002810D11FE046700E
:1016F000206BC762206B0263216B28484863226815
:1017000061464032206BFEF771FF002814D00120A3
:10171000F8BD8670012000903AE02068C16801227F
:1017200052020DE02068C1680122920208E02068A0
:10173000C1680122D20203E02068C16801221203BD
:101740001143C16001222946206800F09BFA144928
:101750002068884205D0134A904202D0124A904233
:1017600004D1426C0123DB031A4342642068012246
:10177000884202D00D49884207D181680C4B19403C
:10178000062905D0DB1F994202D001681143016090
:101790000098F8BD9F1C0008051D00083D1D0008AD
:1017A000002C01400044014000480140000400407A
:1017B0000700010010B5014680310A79012A15D0D1
:1017C00001220A7124228A6002681368146864087E
:1017D00064001460012252079343002242660068AD
:1017E0000360202088600A71104610BD022010BDE1
:1017F00070B5044605468034207901281AD00120AE
:1018000020712420A06028680668026852085200EF
:1018100002602868826807235B069A430A43826055
:10182000284600F003FC286806602020A060002005
:10183000207170BD022070BD70B50446054680342D
:101840002079012819D0012020712420A060286867
:101850000668026852085200026028688268D20056
:10186000D2080A438260284600F0E0FB2868066040
:101870002020A0600020207170BD022070BD70B5D6
:10188000040005D025468035A868002802D006E06F
:10189000012070BD00202871204600F027F8242088
:1018A000A86020680168490849000160A06A002812
:1018B00002D0204600F0DCFB204600F0CDFC0128E1
:1018C000E7D0206841680922D20291434160206834
:1018D00081682A22914381602068016801221143B6
:1018E0000160204600F02AFC70BD000010B58CB0ED
:1018F000044614216846FEF761FC182105A8FEF78E
:101900005DFC16492068884225D1012000240590FD
:10191000069405A8FFF7CEF8002801D0FEF7B6FD23
:101920000F480268012189030A43026000680840E9
:101930000B900B484038426B02210A434263406BD4
:101940006A4608400B90C02013C2039469460548BC
:101950000494FEF791FE0CB010BD00000038014069
:101960004010024000040050FEE7000008B508489F
:10197000816B012211438163806B10400022009033
:1019800011460920FFF76CF80920FFF75DF808BD44
:101990000010024030B587B014216846FEF70EFCF7
:1019A0001048426B02210A434263426B0A4005928F
:1019B000416B012421434163406B052520402D07E5
:1019C0000590002238212846FEF704FF0021382028
:1019D000029103910090019469462846FEF74CFE5F
:1019E00007B030BD0010024010B513481149016026
:1019F00012494160002181600161416181610122E0
:101A0000C161C2600162FEF73BFF002801D0FEF712
:101A10003DFD00210848FEF7E9FE002801D0FEF751
:101A200035FD00210448FEF706FF002801D0FEF72F
:101A30002DFD10BD0058004090060020B57DB1106E
:101A400010B511480F490160FF21053141600021A7
:101A50000722816012020161C2604161C1610122FD
:101A6000016252024162826181620722C2620163A5
:101A700008214163FFF7B6FB002801D0FEF706FD01
:101A800010BD000000300140E406002010B58AB00F
:101A90000024079408941C2168460994FEF78EFBE5
:101AA0001649174812C004604F21846041608021AC
:101AB00001610838FFF744FD002801D0FEF7E6FC7D
:101AC000079407A90E480994FFF74CFC002801D0A1
:101AD000FEF7DCFC60200090019402940C22694621
:101AE00004940748FFF798FC002801D0FEF7CEFCCD
:101AF0000348FFF76BFC0AB010BD00000004004073
:101B00004807002010B5184816490160E121490234
:101B1000416000218160C16001618161C161016238
:101B20000C22416242618162FFF7A9FE002801D0C8
:101B3000FEF7ACFC00210C48FFF77EFE002801D028
:101B4000FEF7A4FC00210848FFF752FE002801D050
:101B5000FEF79CFC0448FFF72DFE002801D0FEF79D
:101B600095FC10BD00380140F0070020FEE77047EB
:101B700010B5F423024A0C210248FFF73BFD10BDCB
:101B8000C002002048070020704710B5FEF706FF8E
:101B900010BD30B591B034216846FEF70FFB00252B
:101BA00001200D950E950F9540021095FEF75CFFF4
:101BB0000224E001039000944020059008200A9040
:101BC00080030B900794000304950C9009950894EA
:101BD0006846FFF71BF9002801D072B6FEE7072020
:101BE0000DA931C102210DA81095FFF709F80028B1
:101BF00001D072B6FEE711B030BD704770B5026813
:101C00001B4B1C4E984201D0B04203D17024A2431A
:101C10004C682243184C194D984208D0B04206D067
:101C2000174EB04203D0A04201D0A84204D10326EF
:101C30003602B243CE6832438026B2434E69324305
:101C400002608A68C2620A688262984203D0A04237
:101C500001D0A84201D109690163012141610169F3
:101C6000C90703D0016949084900016170BD00003E
:101C7000002C0140000400400044014000480140A5
:101C80000020004010B5CB06DB0E0121046A99400C
:101C90008C430462016A9A401143016210BD10B581
:101CA000846A0121626A824206D12177C0690028D4
:101CB00022D13E2001551FE0A26A824207D10222B2
:101CC0002277C069002817D13F20015514E0E26A4D
:101CD000824207D104222277C06900280CD140201B
:101CE000015509E0226B824206D108222277C069A1
:101CF000002801D1412001552046FFF779FC002042
:101D0000207710BD10B5846A616A814201D101203B
:101D10000DE0A16A814201D1022008E0E16A81421E
:101D200001D1042003E0216B814201D108202077FA
:101D30002046FFF75EFC0020207710BD10B5846AB6
:101D40000121626A824203D121773E20015519E0C8
:101D5000A26A824204D1022020773F20015511E07F
:101D6000E26A824204D1042020774020015509E034
:101D7000226B824204D1082020774120015501E0E6
:101D80003D2001552046FFF71FFB0020207710BDA6
:101D9000F0B5056A026A520852000262436882691D
:101DA000164C184E224092080C68920014430222EE
:101DB00095438A682A43124DA84204D0B04202D00B
:101DC000114FB84206D10827BA43CF6817430422FF
:101DD00097433A46A84204D0B04202D00A4DA842E6
:101DE00006D103252D02AB434D691D438B692B435F
:101DF00043608461496841630262F0BD8FFFFEFF6A
:101E0000002C0140004401400048014070B5046AC4
:101E1000026A10239A43026243688269164D2A407F
:101E200003252D02AA430D682D0215432022944359
:101E30008A6812012243114CA04207D18024A24398
:101E4000CC68402624012243B24305E00C4CA0425A
:101E500002D00C4CA04208D10324A402A3434C6935
:101E6000A4001C438B699B00234343608561496840
:101E70008163026270BD0000FF8FFFFE002C0140F5
:101E8000004401400048014070B5046A026AFF2323
:101E900001339A4302624368C269164D2A40920890
:101EA0000D68920015430122520294438A6812027F
:101EB0002243114CA04208D11446CA68C614B44348
:101EC000120222430415A24305E00C4CA04202D0AA
:101ED0000B4CA04208D103242403A3434C692401E2
:101EE0001C438B691B0123434360C5614968C1637F
:101EF000026270BD8FFFFEFF002C014000440140D4
:101F00000048014030B5046A026A01231B039A436A
:101F100002624368C269114D2A4003252D02AA437B
:101F20000D682D0215430122520394438A6812035F
:101F300022430B4CA04205D00A4CA04202D00A4CCE
:101F4000A04205D10124A403A3434C69A401234367
:101F50004360C56149680164026230BDFF8FFFFEC6
:101F6000002C0140004401400048014070B5036A64
:101F7000026A01263604B24302624268456D0E4C85
:101F800025400C682C437500AB430D892D041D437F
:101F90000A4B984205D00A4B984202D0094B98420E
:101FA00003D14B69B2431B021A434260446549683E
:101FB0008165056270BD00008FFFFEFF002C0140AF
:101FC000004401400048014070B5046A026A0123E0
:101FD0001B059A4302624268436D104D2B400D6809
:101FE0002D021D4301235B059C430B891E050C4BF1
:101FF0002643984205D00B4B984202D00A4B984298
:1020000006D101241346A4044A69A34392021A4349
:10201000426045654968C165066270BDFF8FFFFE7D
:10202000002C01400044014000480140F8B504463E
:10203000416E4034002915D000688168806809012C
:102040004D0F0A4E400F3746315C083F385CC000E8
:10205000FEF7B6F86085785D715DC000FEF7B0F8F8
:102060002085F8BD01206085FAE70000DA24000829
:1020700010B5018D090707D501684A680123DB0304
:102080009A43836B1A434A60018DC90707D00168E0
:102090004A6801235B049A43C36A1A434A60018D6C
:1020A000890707D501684A6801231B049A43036B1B
:1020B0001A434A60018D490707D501684A68012320
:1020C0009B049A43436B1A434A60018DC90607D5A6
:1020D0000268916801231B039943C36B1943916004
:1020E000018D890607D501688A6801235B039A433D
:1020F000036C1A438A60018D490612D503685A6839
:1021000001210905446C8A4322435A60426C8A4289
:1021100007D10268516803235B059943836C194317
:102120005160018D090607D501684A680123DB0467
:10213000C06C9A4302434A6010BD0000FEB50546DC
:102140000026803504462E61FEF74AFB0190206888
:10215000006820270007002817DA25480090002291
:1021600039042046019B00F02BF900280DD0EFF335
:102170001080012181F3108821680A6880239A4326
:102180000A6080F31088AF6028E02068006840078C
:1021900027D5174800900121002289052046019B80
:1021A00000F00EF900281CD0EFF31080012181F31C
:1021B000108821680A68FF2321339A430A6080F35C
:1021C0001088EFF31080012181F3108821688A685C
:1021D000520852008A6080F31088EF602E7103204D
:1021E000FEBDAF60EF60E66626672E710020FEBD83
:1021F000FFFFFF0110B5EFF31081012282F3108879
:1022000002681368FF242134A343136081F310880C
:10221000EFF31081012282F31088026893680D4C5D
:102220002340936081F31088C16E01290BD1EFF335
:102230001081012282F31088026813681024A343DE
:10224000136081F3108820228C210A500021C1667E
:10225000416710BDFEFFFFEFF8B5044680682169B5
:10226000E269084361690025114322680843116847
:102270004B4B19400143116020684168032212034F
:102280009143E26811434160A169206A08432168D3
:102290008A68444B1A4002438A602068C16A626AB5
:1022A000090909011143C1623F492068884211D1DF
:1022B0003E4840698007800F0FD0012806D00228D1
:1022C00002D003280BD103E0022109E0042107E03A
:1022D000082105E03649884201D1002100E01021A3
:1022E0000120E369C003334A334E344F834227D180
:1022F000002906D0022907D0042907D008293FD198
:1023000008E0FEF729FD03E0104603E0FEF738FD84
:1023100000283AD0616A4900715AFDF751FF61689F
:1023200040004A088018FDF74BFF01461039B942BA
:1023300026D82249491C01400007400F084322E0EB
:10234000002906D0022907D0042907D0082917D16F
:1023500008E0FEF701FD03E0104603E0FEF710FD84
:10236000002812D0616A4900715AFDF729FF61689F
:102370004A088018FDF724FF01461039B94201D9F7
:10238000012502E080B22168C8602046012140306A
:102390004185018500206067A0672846F8BD0000E0
:1023A000F369FFCFFFF4FF110038014040100240F5
:1023B000004400400024F400BA240008EFFF0000AD
:1023C000FFB581B005460E46044680350A9F32E0CF
:1023D000781C30D0FEF704FA0499401AB84218D895
:1023E000002F16D020680168490724D5802E22D0FE
:1023F000402E20D0C169C94309070CD408260662C3
:102400002046FFF7F7FE2E6100202871012005B05D
:10241000F0BD0320FBE7C069C04300050BD40120D9
:102420002168C00208622046FFF7E4FE20202861F0
:1024300000202871EDE72068C1693046884305D047
:10244000002103988142C3D00020E0E70121F8E792
:102450008307FF22DB0E9A408907090E9940002866
:1024600008DB830809489B001B1818689043084341
:10247000186070470007000F0838830804489B0065
:102480001B18D86990430843D861704700E400E006
:1024900000ED00E0FEF78AFAFFF77BFBFFF77AFA20
:1024A000FFF764FAFFF7CCFAFFF7F0FAFFF79CFAB0
:1024B000FFF728FBFFF75CFBFEE7010002000400CA
:1024C000060008000A000C001000200040008000F8
:1024D00000010101010307010000080402040801D2
:1024E00001010000000000000000000000000000EA
:1024F00000000000000000000000000000000000DC
:1025000000000000010000000200000003000000C5
:1025100004000000060000000700000008000000A2
:1025200009000000000000000000000000000000A2
:102530000000000001000000020000000300000095
:102540000400000064250008000000209006000040
:10255000860300088C25000890060020580800001B
:1025600004010008320182041324F4321A09FD0424
:10257000091B0401FF01910A1D1A040A3D332009B9
:0C258000FD6009DF6001FF019100000018
:04000005080000C12E
:00000001FF
