:020000040800F2
:10000000C84C01209D0100082142000899340008D5
:10001000DD410008550C00088D5700080000000065
:10002000000000000000000000000000B5460008CD
:10003000750F00080000000009450008F54600089B
:10004000B7010008B7010008B7010008B7010008B0
:10005000B7010008B7010008B7010008B7010008A0
:10006000B7010008B7010008B7010008B701000890
:10007000ED0D0008F90D0008050E0008110E00082E
:100080001D0E0008290E0008B7010008B70100087E
:10009000B7010008B7010008B7010008B701000860
:1000A000B7010008B7010008B7010008B701000850
:1000B0009D470008B7010008B7010008B701000814
:1000C000B7010008B7010008B7010008B701000830
:1000D000B7010008355600088D560008E1560008A3
:1000E000B7010008B7010008B7010008B701000810
:1000F000B7010008B7010008B7010008B701000800
:10010000B7010008B7010008A9470008B7010008B7
:1001100049510008B7010008BD470008B7010008B1
:10012000350E0008410E00084D0E0008B70100080A
:10013000B7010008B7010008B7010008B7010008BF
:10014000B7010008B7010008B7010008B7010008AF
:10015000B7010008590E0008650E0008395700085D
:10016000B7010008B7010008B7010008B70100088F
:10017000B7010008B7010008B7010008000000003F
:10018000B7010008B7010008DFF80CD000F0CCFB85
:1001900000480047F55F0208C84C01200648804728
:1001A00006480047FEE7FEE7FEE7FEE7FEE7FEE75C
:1001B000FEE7FEE7FEE7FEE78D470008890100083D
:1001C0002DE9F05F0546002092469B46884606468C
:1001D000814640241BE0284641464746224600F01F
:1001E0000CF953465A46C01A914110D3114618468D
:1001F000224600F0F3F82D1A67EB01084F4622461D
:100200000120002100F0EAF817EB00094E41201E02
:10021000A4F10104DFDC484631462A464346BDE8E6
:10022000F09F10B5431A934209D28318881803E04F
:1002300010F8011D03F8011D521EF9D210BD40EA4D
:1002400001039B0703D009E008C9121F08C0042A54
:10025000FAD203E011F8013B00F8013B521EF9D23B
:1002600010BDD2B201E000F8012B491EFBD270474D
:100270000022F6E710B513460A4604461946FFF772
:10028000F0FF204610BD421C10F8011B0029FBD1D5
:10029000801A704710B5002200E0521C835C8C5C11
:1002A000A34201D1002BF8D1D8B2E1B2401A10BD5F
:1002B000034611F8012B00F8012B002AF9D118464A
:1002C000704770B5064605F0F3FA046805460A2241
:1002D0000021304600F0A1F82C6070BD0EB540F250
:1002E000334102910021CDE900110A460B4600F08E
:1002F000DBF803B000BDC1F30A5210B5C1F313011E
:1003000040F2FF3341F480119A4201DA002010BD1F
:1003100040F233439A42A2F2334203DC524200F0ED
:100320006CF810BD904010BD00F0004230F000406D
:100330000AD0C10D01F56071C0F3160042EA015107
:10034000C208400711437047002001467047000073
:1003500030B5041E71F1000404DB4FF0004440424C
:1003600064EB0101141E73F1000405DB1C464FF021
:100370000043524263EB04038B4208BF824230BD0C
:1003800030B5041E71F1000404DB4FF0004440421C
:1003900064EB0101141E73F1000405DB1C464FF0F1
:1003A0000043524263EB0403994208BF904230BDC0
:1003B00030B50B46014600202022012409E021FA35
:1003C00002F59D4205D303FA02F5491B04FA02F532
:1003D0002844151EA2F10102F1DC30BD202A04DB05
:1003E000203A00FA02F1002070479140C2F1200348
:1003F00020FA03F3194390407047202A04DB203A87
:1004000021FA02F00021704721FA02F3D040C2F134
:10041000200291400843194670472DE9F047914664
:100420000F4680460446002614F8015B2DB100F00B
:100430009FFA0068405DC007F6D12B2D02D02D2D0C
:1004400018D0641E4A463946204600F095FA27B176
:100450003968A14201D1C7F8008071054FF002044C
:100460000BD54042002803DD05F022FA0460A00706
:10047000BDE8F08746F48066E4E70028F8DA05F086
:1004800017FA04606FF00040F2E710B5141E73F124
:10049000000408DA401C41F1000192185B411A4344
:1004A00001D120F0010010BD2DE9F04D92469B4690
:1004B00011B1B1FA81F202E0B0FA80F22032904636
:1004C000FFF78CFF04460F4640EA0A0041EA0B01A1
:1004D00053465A46084313D0114653EA010019D037
:1004E000C8F140025046FFF788FF05460E465046C9
:1004F00059464246FFF772FF084305D0012004E049
:1005000020463946BDE8F08D0020054346EAE076F6
:100510002C4337430A986305E40AA0EB0800002245
:10052000FD0A44EA47540A3002D500200146E9E7B3
:10053000010510196941DDE9084500196941BDE867
:10054000F04DA2E72DE9FE4F804681EA0300C00F7F
:100550000C46009021F0004123F00045B8EB02006A
:10056000A94105D24046214690461C460B4602460C
:1005700023F00040104347D0270DC7F30A00C3F310
:100580000A510290401A019040286BDAC3F313001D
:1005900040F4801B0098924620B10023D2EB030A5E
:1005A00063EB0B0B01985946C0F140025046FFF730
:1005B00015FF06460D4650465946019A00F0C6F909
:1005C00010EB08006141002487EA115284EAE773C6
:1005D0001A4340D0009A62B3019A012A4FEA0752A7
:1005E00015DC001B61EB02014FF0004202EA0752EA
:1005F000CDE90042001C41F5801132462B46FFF741
:1006000053FF03B0BDE8F08F40462146F9E7001BD9
:1006100061EB0201001C41F5801300185B412018BA
:10062000A2F5001747EB030140EAD570B6196D41FA
:1006300011E06D084FEA360645EAC0754FEA0752E9
:10064000001B61EB0201001C41F5801149084FEAD3
:1006500030000019514132462B4603B0BDE8F04F3F
:10066000FFF713BF0098012240000023D0EB0202E5
:1006700063EBE073009821464FEAE074B8EB0000AA
:1006800061EB0401E9E783F000435BE781F000419F
:1006900058E72DE9FE4F81EA030404F0004421F0FD
:1006A000004100944FF0000B23F0004350EA010496
:1006B0005ED052EA03045BD0C3F30A54C1F30A5577
:1006C0002C44A4F2F3340194A0FB0254C1F31301AF
:1006D00041F48011C3F3130343F4801301FB02447C
:1006E00000FB034E840A970A44EA815447EA835781
:1006F000A4FB076802958D0A05FB07854FEA932C3A
:1007000004FB0C542705029D4FEA065847EA1637AA
:10071000B5EB08056EEB070C870E920E47EA8117C2
:1007200042EA8312A7FB0201B6EB0B0164EB000463
:100730002B0D43EA0C335E1844EB1C50DA4651464D
:10074000E7FB0201C5F313044FEA0B3343EA1453EA
:100750004FEA0432019C43EA0603A4F10C0402941C
:10076000009CCDE900B4FFF79FFE03B0BDE8F08F19
:1007700000200146F9E72DE9F04D81EA030404F079
:10078000004B21F0004514464FF0000A23F00041D1
:1007900050EA050220D054EA01021DD0C5F30A57E1
:1007A0000246C5F31303C1F31300C1F30A5640F424
:1007B000801543F48013A7EB0608101BD64608F2F9
:1007C000FD3873EB050002D308F1010801E092182F
:1007D0005B41B8F1000F03DA00200146BDE8F08D5F
:1007E00000204FF48011064684460EE0171B73EB81
:1007F000050705D3121B63EB050306434CEA010C06
:1008000049084FEA300092185B4150EA0107EDD1E8
:1008100052EA030012D082EA040083EA0501084389
:1008200005D0101BAB4106D20122002306E00022B6
:100830004FF0004302E06FF0010253101AEB060084
:100840004CEB085110EB0A0041EB0B01BDE8F04DF9
:10085000FFF71BBE2DE9F04D00231A461B1A8A41F3
:1008600003DB00200146BDE8F08DC1F30A52C1F35D
:10087000130141F480154FF0000BD10702D100188D
:100880006D41521E0027044640F2FF11384601EB2D
:10089000620A3E468046024600204FF48011FFF770
:1008A000ACFDC2197141BB1846EB0100B4EB030C5F
:1008B00075EB000C04D3E41A65EB000517460E46F1
:1008C000241908F101006D4180463428E3DDF9194F
:1008D00046EB0600091BA84103D24FF0FF32134636
:1008E00001E0002213461BEB070046EB0A51BDE86E
:1008F000F04DFFF7CABDC1F30A52C1F3130140F234
:10090000FF3341F480119A4202DA00200146704719
:1009100040F233439A42A2F2334202DC5242FFF7E2
:100920006CBDFFF75BBD0000064C074D06E0E068BC
:1009300040F0010394E8070098471034AC42F6D326
:10094000FFF726FCDC8A0408FC8A0408202A06DB60
:10095000CB17203A41FA02F043EAE07306E041FA8D
:1009600002F3D040C2F1200291400843194670477B
:1009700000487047088604082DE9F05F8246007839
:10098000002715468B460AF10104B946302801D0EC
:100990009DB113E014F8010B0127782803D05828E3
:1009A00001D045B10AE00DB1102D07D10027102567
:1009B00014F8010B02E0082500E00A250026B046E5
:1009C0000EE005FB080005FB06F1012701EB1046D0
:1009D0001FFA80F8B6F5803F00D3B94614F8010B32
:1009E000294600F018F80028EBDABBF1000F05D01B
:1009F0000FB1641E00E05446CBF80040B9F1000F7F
:100A000006D004F055FF02210160C81EBDE8F09F2A
:100A100048EA0640FAE73A2800D2303820F02002AF
:100A2000412A01D3A2F13700884201D34FF0FF30B1
:100A3000704770B58C1810F8015B15F0070301D1F1
:100A400010F8013B2A1106D110F8012B03E010F831
:100A5000016B01F8016B5B1EF9D12B0705D4002354
:100A6000521E0DD401F8013BFAE710F8013BCB1AF6
:100A7000921C03E013F8015B01F8015B521EF9D5EB
:100A8000A142D8D3002070BD10B50146806B026C26
:100A900012F0500F05D0026CD20626D500F002FDF0
:100AA00010BD016C41F40071016401688A6812F0A4
:100AB000405F17D1027EAAB9CA6A12F4700F02D041
:100AC0008A6852050ED44A6822F020024A60016CFE
:100AD00021F480710164016CC90403D4016C41F0FC
:100AE0000101016400F0DCFC10BD806BC26CBDE84C
:100AF00010400846104710B5806B40210164416CDE
:100B000041F00401416400F0CDFC10BD10B5806BD4
:100B100000F0C7FC10BD000001220249024800F0AD
:100B200039BD0000F010002098070020464910B59C
:100B30004A6822F440324A604A6843681A434A606D
:100B400001684A6822F480724A6001684A68036951
:100B500042EA03224A6001684A6822F040724A6011
:100B600001684A6883681A434A6001688A6822F407
:100B700000628A6001688A68C3681A438A60816A71
:100B80006FF07062D14201688A6822F070628A60F8
:100B900001688A680CD0836A1A438A6001688A688F
:100BA00022F040528A6001688A68C36A1A4301E0F1
:100BB00022F040528A6001688A6822F002028A604C
:100BC00001688A68037E42EA43028A6090F8201036
:100BD000002901684A680FD042F400624A60016847
:100BE0004A6822F460424A6001684A68174C436AC6
:100BF00004EB43331A4301E022F400624A600168C7
:100C0000CA6A22F47002CA620168CA6A838B104CF5
:100C100004EB03531A43CA6201688A6822F4007223
:100C20008A6001688A6890F8303042EA43228A601C
:100C300001688A6822F480628A6001688A68406973
:100C400042EA8020886010BD0023014000E0FFFFE1
:100C50000000F0FFFEE700002DE9F04100241B4FEB
:100C600025464FF08008502602E0012009F072FA74
:100C70000121384601F018F8012804D1301EA6F1F0
:100C8000010676B2F1DC502602E0012009F062FA9A
:100C90000121384601F008F820B9301EA6F10106FE
:100CA00076B2F2DC372009F055FA0121384600F01F
:100CB000FBFF012802D128FA05F004436D1CEDB2B8
:100CC000082DD0D360B2BDE8F081000000100240D2
:100CD00000B585B014216846FFF7CAFA01200090DC
:100CE000002001900290022003906946024800F023
:100CF000E3FE05B000BD0000001002402DE9F04108
:100D00000E460746642400F05DF82C4D00220121B8
:100D1000284600F0CEFF162000F0B6FE0122114654
:100D2000284600F0C6FF1E2009F014FAFFF7D0FF96
:100D300002E0012009F00EFA0121284600F0B4FF7C
:100D4000012804D1201EA4F1010464B2F1DC642462
:100D500002E0012009F0FEF90121284600F0A4FF7D
:100D600020B9201EA4F1010464B2F2DCFFF774FF85
:100D7000134C2070FFF770FF6070FFF76DFFA070DD
:100D8000FFF76AFFE070FFF767FF2071012211464D
:100D9000284600F08EFF3C2009F0DCF920786178CD
:100DA000A27801441144E27811442279914202D19F
:100DB0003070A0783870BDE8F0810000001002406B
:100DC0007001002000B585B014216846FFF750FA85
:100DD0000120009001900290022003906946024891
:100DE00000F06AFE05B000BD00100240014800F0AE
:100DF000D9BC0000600D0020014800F0D3BC000009
:100E0000200B0020014800F0CDBC0000C00D0020E8
:100E1000014800F0C7BC0000800B0020014800F032
:100E2000C1BC0000000D0020014800F0BBBC000068
:100E3000A00C0020014800F0B5BC0000E007002035
:100E4000014800F0AFBC0000200E0020014800F077
:100E5000A9BC0000E00B0020014800F0A3BC00008A
:100E6000800E0020014800F09DBC0000400C0020D6
:100E700001681823CAB2103AB2FBF3F2054B6FF3C4
:100E80000901032A9B5CC36500D9091D81650846D9
:100E900070470000ECC6020810B5014600208B69BF
:100EA0008A6A4FF0C07453B1B3F5005F15D072B1C8
:100EB000012A0CD0022A0AD0032A09D104E01AB16F
:100EC000012A06D0022A03D1C96AC90100D501202E
:100ED00010BDC96AA142FAD010BD002AF7D0012A7C
:100EE000F2D0022AF3D0032AF3D010BD30B5046843
:100EF000256825F480252560046863608368402B9D
:100F0000036803D099600068C26030BD9A600068D1
:100F1000C16030BD70B5144D00241449B5F900000E
:100F2000264601280FD002281DD1088029F0AEFFE7
:100F300003210F4803F0C0FB052000F0A5FD641C51
:100F4000052CF5DB0EE00120088029F09FFF084802
:100F50000321C01E03F0B0FB052000F095FD641CCA
:100F6000052CF4DB2E8070BD74000020760000207C
:100F700003000020704700002DE9FF4F83B090462A
:100F80000E460746002514464FE000BF381BA6EB6F
:100F9000050902901FFA89F180B2069A02F09CFBC3
:100FA000381901901FFA89F180B2069A02F094FB79
:100FB000301981B2A7EB050900901FFA89F0069A53
:100FC00002F08AFBA6EB040B1FFA8BF11FFA89F0E3
:100FD000069A02F081FB019806EB050A1FFA8AF1D6
:100FE00080B2069A02F078FB07EB05091FFA8BF135
:100FF0001FFA89F0069A02F06FFB0098069A81B2F8
:101000001FFA89F002F068FB02981FFA8AF180B299
:10101000069A02F061FB6D1C05FB05F004FB040160
:1010200018FB08F0814200DD641EA542AEDD07B06A
:10103000BDE8F08F0848016800290BD00748C26E50
:10104000002A07D0026F002A04D080F890100620F2
:1010500000F0DCB87047000064000020800600202B
:1010600072B6FEE700220C4910468B18521C83F81A
:1010700091000A2AF9DB00228B18521C83F8280001
:10108000632AF9DB00228B18521C03F89B0F132AEA
:101090001875F8DD704700005C050020074810B5A2
:1010A0000068C16841F01001C1606422044903482E
:1010B00002F0F2F8BDE81040FFF7D4BFD80A0020D4
:1010C0008405002070B5504C0020211891F828109C
:1010D000242907D0622802DA401C6428F5DB94F842
:1010E0008C504DE084F88C00F9E7601990F82800E6
:1010F000262804D05E2821D0252844D03FE084F85B
:101100008D5094F88C00281A84F88E00002009E095
:1011100094F88C100A1900F12901525C2118401C26
:1011200081F8912094F88E10491E8142F0DC3648F7
:101130009130FFF7C6F8C4F8180120E0681E84F863
:101140008F0094F88D10401A84F81301002009E0F4
:1011500094F88D100A1900F12901515C2218401CE5
:1011600082F89B1094F813118142F1DC00202118C1
:10117000401C91F89B2081F8C3201328F7DD6D1CDB
:10118000632DB2DB70BD6D1E84F8905094F88F0013
:10119000281A401E84F81401002009E094F88F10EA
:1011A00000F12A0221448A5C2118401C81F8AF20FA
:1011B00094F814118142F1DC00202218401C92F8AE
:1011C000AF1082F8D7101328F7DD002006E02218B0
:1011D00092F8D710303982F8FF10401C94F814119F
:1011E0008142F4DC002006E0211891F8C320303A57
:1011F00081F8EB20401C94F813118142F4DCBDE827
:101200007040FFF72FBF00005C0500202DE9F04F74
:10121000424989B0444A91F803C081F801C08F78EF
:101220000F704249DFF8F8A092ED1F0AD1E91B5672
:10123000BDEEC00A91F89040DFF8E8909AF80C11E2
:101240009AF80D219AF80E314FF0040EF0B1D04605
:10125000012898F81CB117D002281BD0032824D0ED
:10126000042824D0052836D0062837D00A2838D0BC
:101270000B283AD00C2848D00D284AD0142811D178
:101280004FF0050B8AF81CB10A2004E08AF81CE133
:1012900009202DE00B2089F81C01CDE9046B2BE01F
:1012A00002F09EFF09B0BDE8F08F0C20F3E74FF08D
:1012B0000A0B89F81CB102208AF81C01CDE90460F0
:1012C0008DED060ACDF81CC0CDF800B00395CDE930
:1012D000014717A0E4E74FF0030BD3E74FF0010BF2
:1012E000D0E78AF81CE10E2002E08AF81CE10F200A
:1012F00089F81C01CDE9046E8DED060ACDF81CC0FD
:1013000003958DE891000AA0CAE78AF81CE1112034
:10131000EEE78AF81CE11220EAE700006C010020E9
:10132000740F00205C050020F010002080060020D3
:101330002125642625645E25642325644025642FC9
:1013400025642B25642D25643D25642A25647C2590
:10135000647E3F0078B50024009490F83C20012A78
:1013600019D0012280F83C200A6807230568092A61
:1013700013D9EE680A3A02EB420293409E43EE60B4
:101380000B788A680A3B03EB43039A400368DD68E5
:101390002A43DA6010E0022078BD2E6902EB420297
:1013A00093409E432E610B788A6803EB43039A4077
:1013B00003681D692A431A614A681F23072A13D24A
:1013C00005686E6B521E02EB820293409E436E6371
:1013D0000B790A885B1E92B203EB83039A40036881
:1013E0005D6B2A435A6327E005680D2A12D22E6BE3
:1013F000D21F02EB820293409E432E630B790A8830
:10140000DB1F92B203EB83039A4003681D6B2A43F0
:101410001A6311E0EE6A0D3A02EB820293409E439A
:10142000EE620B790A880D3B92B203EB83039A407C
:101430000368DD6A2A43DA62164B0568144A9D4246
:1014400006D10D68122D03D1556845F4800555600D
:1014500005689D4218D10B68102B01D0112B13D1B8
:10146000536843F400035360096810290CD10A49FA
:101470000A4A0968B1FBF2F101EB8101490000E081
:10148000491E00910029FBD180F83C40002078BD26
:1014900000230140002001402000002040420F00B6
:1014A00070477047704770B504004FF0000503D0D7
:1014B000206C002610B107E0012070BD204600F02E
:1014C0001DF8666484F83C60206CC00610D4206C63
:1014D00020F4885040F0020020642046FFF726FBED
:1014E0006664206C20F0020040F00100206400E0FF
:1014F000012584F83C60284670BD000070B586B0B8
:10150000064614216846FEF7B3FE1D49306888423E
:1015100033D11C480025016841F4807101600068E6
:1015200000F48070059017481438016841F00401F8
:1015300001600068694600F00400059002200090F8
:101540000320CDE90105104800F0B6FA104C0F4811
:10155000C4E900050015A560C4E9035040006061BE
:101560008000C4E9060525622046656200F0EAF9BC
:1015700008B1FFF775FDB463A66306B070BD000047
:10158000002001404438024000080240106402403C
:10159000E0070020F8B50E4600210446009190F8BF
:1015A0003C0013460A46012807D0012084F83C007D
:1015B00020688568ED0702D011E00220F8BD85683B
:1015C00045F0010585604048404D0068B0FBF5F0EE
:1015D00000EB400000E0401E00900028FBD1206896
:1015E0008568ED0503D5856825F4807585602068DC
:1015F0008568ED075DD0226C40F20165AA4342F494
:10160000807222644068400505D5206C20F40050AB
:1016100040F480502064206CC00404D5606C20F03D
:101620000600606400E0616484F83C10A16B294806
:10163000274DC863A16B28480864A16B2748C8647C
:1016400021686FF0220008602068416841F08061E5
:1016500041602068816841F4807181602168324670
:101660004C31A06B00F0D8F9024668681C49C006EE
:10167000206806D0884224D1816811F0405F13D0E1
:101680001FE08842F8D0174B984203D1D1F80433B9
:10169000DB06F1D0144B984213D1D1F8041301F0BA
:1016A0001F011029E8D30CE0816841F0804181607E
:1016B00007E0206C40F010002064606C40F00100F6
:1016C00060641046F8BD00002000002040420F007A
:1016D00000230140890A00080D0B0008F70A0008E2
:1016E0000020014000210140002201402DE9F0418D
:1016F0000446876D00F0E2FA064694F835000025AE
:10170000022806D08020606584F834500120BDE8AE
:10171000F0812068016821F01601016020684169AC
:1017200021F080014161206C08B9A06C20B12068D3
:10173000016821F0080101602068016821F00101C1
:1017400001600CE000F0BAFA801B052807D92020C0
:101750006065032084F8350084F83450D7E72068AA
:101760000068C007EED194F85C103F208840B86054
:10177000012084F8350084F834500020C7E790F841
:101780003510022903D080214165012070470521D1
:1017900080F835100068016821F001010160002027
:1017A000704700002DE9F84304464FF00009CDF8DA
:1017B000009063484FF41651A56D0068B0FBF1F737
:1017C0002E6894F85C10082000FA01F131420FD025
:1017D00021680A6852070BD50A6822F004020A60E1
:1017E00094F85C108840A860606D40F0010060656E
:1017F00094F85C104FF0010808FA01F0304208D06C
:1018000021684969090604D5A860606D40F00200AE
:10181000606594F85C1004208840304208D021684C
:101820000968890704D5A860606D40F00400606510
:1018300094F85C1010208840304218D02168096864
:10184000090714D5A86020680168490304D5006819
:10185000000308D5A16C07E00168C90503D401683D
:1018600021F008010160216C09B12046884794F8F5
:101870005C1020208840304231D021680968C906B8
:101880002DD5A86094F8350005282068016806D099
:10189000490347D5006800031DD4616C1CE021F0AA
:1018A000160101602068416921F080014161206CCE
:1018B00008B9A06C20B12068016821F0080101601E
:1018C00094F85C103F208840A86084F8358084F844
:1018D0003490216D1FE0E16B09B120468847606DAF
:1018E00000282BD0606DC00714D0052084F8350087
:1018F0002068016821F0010101600098401C0090FF
:10190000B84203D820680068C007F6D184F8358053
:1019100084F83490E16C002910D001B02046BDE875
:10192000F04308470168C905D5D4016821F01001CA
:10193000016084F8358084F83490CCE7BDE8F88302
:10194000200000202DE9F041044600F0B7F90646DA
:101950005CB1022084F83500002584F834502068FA
:10196000016821F0010101600DE00120BDE8F08176
:1019700000F0A4F9801B052805D92020606503200C
:1019800084F83500F2E720680068C007F0D12268CB
:10199000116820480140D4E901031843D4E9033613
:1019A0003343184363691843A3691843E369184331
:1019B000236A18430843616A042903D1D4E90B134D
:1019C00019430843106020684069666A20F00701E7
:1019D00030460E43012704280CD1A06A0643E06A72
:1019E00040B12046FFF758FA20B14020606584F8E6
:1019F0003570BAE7206846612046FFF739FA94F857
:101A00005C203F2191408160656584F8357000203D
:101A1000ACE700003F8010F02DE9F0410446866DF0
:101A200090F83400002501280DD0012084F83400FE
:101A300094F835700020012F07D084F83400022577
:101A40002846BDE8F0810220FBE7022784F83570C4
:101A500060652046FFF74AFA94F85C103F20884002
:101A6000B0602068016841F016010160206C20B16F
:101A70002068016841F0080101602068016841F0B8
:101A800001010160DCE7000070B5044600F016F9C2
:101A90000546601C02D004480078044400F00EF9AA
:101AA000401BA042FAD370BD140000200149086019
:101AB00070470000240000202DE9F84FDFF8BCA19A
:101AC0000022012503264FF00F090AF1040BAAF1A9
:101AD000040E00BF0B6805FA02F42340A34270D144
:101AE0000F7907F00307012F01D0022F16D1876865
:101AF0004FEA420806FA08FC27EA0C07D1F80CC0A6
:101B00000CFA08FC4CEA070CC0F808C04768A74369
:101B10000C79C4F3001494403C4344600C79E443D2
:101B2000A4070AD0C4684FEA420C06FA0CF7BC437B
:101B30008F6807FA0CF72743C7600C7904F0030499
:101B4000022C12D1D40800EB840CDCF8204057079B
:101B5000FF0E09FA07F824EA0804D1F8108008FA01
:101B600007F848EA0408CCF8208004684FEA420CE1
:101B700006FA0CF7BC430F7907F0030707FA0CF7D6
:101B8000274307604C6814F4403F70D03C4C2768F2
:101B900047F480472760246822F0030704F4804458
:101BA0000094384C07EB040CDCF8084897074FEA20
:101BB000177809FA08F7BC43334FB84202D100271F
:101BC00024E054E0314FB84201D101271EE0304FEC
:101BD000B84201D1022719E02E4FB84201D10327A4
:101BE00014E02D4FB84201D104270FE02B4FB8422B
:101BF00001D105270AE02A4FB84201D1062705E0A6
:101C0000284FB84201D1072700E0082707FA08F754
:101C10002743CCF80878DAF800405746D1F804C0DA
:101C20009C435FEACC2C00D51C433C60DBF80040B1
:101C30005F46D1F804C09C435FEA8C2C00D51C435E
:101C40003C60DEF800407746D1F804C09C435FEA70
:101C50008C3C00D51C433C60084F083F3C68D1F8E1
:101C600004C09C435FEACC3C00D51C433C60521C42
:101C7000102AFFF42FAFBDE8F88F0000083C0140A8
:101C8000443802400030014000000240000402409D
:101C900000080240000C0240001002400014024004
:101CA00000180240001C02400069084000D00120DA
:101CB00070470AB1816170470904FBE701488068F9
:101CC0007047000014000020024881680278114427
:101CD00081607047140000200B4810B5016841F482
:101CE00000710160016841F480610160016841F4A4
:101CF00080710160032000F06FF80F2000F006F8FB
:101D000000F024F8002010BD003C024070B50D4DDD
:101D100004464FF47A712878B1FBF0F00A4909685B
:101D2000B1FBF0F000F096FC48B9102C07D200226D
:101D30002146501E00F030F800206C6070BD01207C
:101D400070BD000014000020200000200A4808B5E3
:101D5000016841F480410160006800F48040009017
:101D60000548001F016841F080510160006800F0E3
:101D70008050009008BD000044380240002809DB74
:101D800000F01F02012191404009800000F1E02095
:101D9000C0F8001170470000F0B40E4B1B680C46F1
:101DA000C3F30223C3F10705042D00D90425191D2F
:101DB000072901D2002300E0DB1E012606FA05F107
:101DC000491E214099409E40761E16403143F0BC8A
:101DD00003F05EBD0CED00E0064900F00702086864
:101DE0004FF6FF03184040EA0220034A1043086000
:101DF000704700000CED00E00000FA052DE9F04707
:101E00000E46050065D0DFF81481D8F80000F7B25F
:101E100000F00700B04207D288F80070D8F8000040
:101E200000F00700B04254D128683D4C810712D51C
:101E3000400703D5206840F4E05020602878000770
:101E400003D5206840F4604020602068A96820F035
:101E5000F000084320602878C0072DD0304968681A
:101E60000839012812D0022813D0032811D009689C
:101E7000890700292DDA216821F00301014321603F
:101E8000FFF71CFF814641F2883A0EE0096889039A
:101E9000EFE709688901ECE7FFF710FFA0EB090104
:101EA000514502D90320BDE8F0872068696800F039
:101EB0000C00B0EB810FEFD1D8F80010404601F0D4
:101EC0000701B14207D90770006800F00700B0426F
:101ED00001D00120E7E72878400705D52068E968A8
:101EE00020F4E050084320602878000706D52068D9
:101EF000296920F4604040EAC100206000F038F811
:101F00002168084AC1F30311515CC84006490860C2
:101F100006480068FFF7FAFE0020C4E7003C0240D4
:101F200008380240F4C602082000002018000020F3
:101F30000448054900680968044AC1F38221515CDC
:101F4000C8407047200000200838024004C702083B
:101F50000448054900680968044AC1F34231515CEC
:101F6000C8407047200000200838024004C702081B
:101F7000154810B5006810F00C02144813D0411039
:101F8000042A0FD0082A0ED10F4C241F2268236880
:101F900002F03F025B0207D52068C0F38810A0FB67
:101FA000010106E0084610BD2168C1F38811A1FBBC
:101FB00000010023FEF704F92168C1F30141491C27
:101FC0004900B0FBF1F010BD083802400024F400D5
:101FD0002DE9F84F04006ED02078DFF84C93C0074D
:101FE000A9F104054AD009F104000168C1F3810197
:101FF000012908D00068C0F3810002280AD1D9F86D
:102000000000400206D52868800337D560680028A4
:10201000E1D033E06068B0F5803F10D0B0F5A02F7C
:10202000286810D020F480302860286820F48020B0
:1020300028606068A8B1FFF741FE06460DE02868F9
:1020400040F48030F4E740F480202860F7E700BFD8
:10205000FFF734FE801B642873D828688003F7D507
:102060000CE0FFF72BFE064605E000BFFFF726FE5B
:10207000801B6428F0D828688003F7D42078DFF824
:10208000AC8280074FF0000A3ED5A748001D0168CA
:1020900011F00C0F08D00068C0F3810002280BD1AA
:1020A000D9F80000400207D42868800716D5E068F8
:1020B000012800D112E033E1E068B8B10120C8F88E
:1020C0000000FFF7FBFD064605E000BFFFF7F6FD49
:1020D000801B0228C0D828688007F7D528682169A6
:1020E00020F0F80040EAC10028600DE0C8F800A028
:1020F000FFF7E4FD064604E0FFF7E0FD801B022841
:102100001FD828688007F7D42078000722D5864F8B
:1021100087486169703771B101210160FFF7CEFD19
:10212000064604E0FFF7CAFD801B022809D838687C
:102130008007F7D50EE0C0F800A0FFF7BFFD064608
:1021400005E082E0FFF7BAFD801B02287DD83868E1
:102150008007F7D42078400768D5DFF8CCB1002796
:102160000BF13C0BDBF80000C0000BD4DBF80010D7
:1021700041F08051CBF80010DBF80000012700F09F
:10218000805000906B4E3068C00510D4306840F429
:1021900080703060FFF792FD009005E0FFF78EFD44
:1021A0000099401A022850D83068C005F6D55E4E16
:1021B000A0686C3601280FD00528306810D020F0B8
:1021C00001003060306820F004003060A068B8B1D1
:1021D000FFF774FD00900FE0306840F00100F4E775
:1021E00040F004003060F7E7FFF768FD0099411AFE
:1021F00041F28830814266D830688007F4D50EE01D
:10220000FFF75CFD009007E0FFF758FD0099411AC9
:1022100041F28830814256D830688007F4D42FB11B
:10222000DBF8001021F08051CBF80010A069C8B392
:102230003D49091D0968C1F3810102294AD00228DC
:10224000504607D0C8F8600000E03CE0FFF736FDDC
:1022500004463BE04746C8F86000FFF72FFD0646FE
:1022600005E000BFFFF72AFD801B02282BD8286855
:102270008001F7D4D4E907010843A16A2E4A49082E
:1022800002EB0141626A41EA8211084394F82C1082
:1022900040EA0161C9F8001001203866FFF70EFD21
:1022A000044606E03EE000BFFFF708FD001B0228E1
:1022B00009D828688001F7D534E000BFFFF7FEFC9D
:1022C000001B022802D90320BDE8F88F286880018E
:1022D000F4D427E00128F7D0D9F80000E26900F42F
:1022E000800191421CD1226A00F03F01914217D136
:1022F00047F6C071626A0140B1EB821F10D1A26A39
:102300004FF0FF3300F4403103EB5202B1EB024FC8
:1023100006D194F82C1000F07060B0EB016F01D082
:102320000120D1E70020CFE70438024000004742F7
:10233000800E4742007000400000FFFF70B50400AF
:1023400009D0606A002540B125616561A56294F8F5
:10235000510040B10CE0012070BD6068B0F5827F93
:10236000F4D0E561F2E784F85050204600F044F8DC
:10237000022084F851002068016821F040010160CA
:10238000A088218900F4827001F404410843A189E6
:1023900001F400610843217C01F002010843217D22
:1023A00001F001010843218B01F400710843217FF2
:1023B00001F03801084394F8201001F0800108432F
:1023C000218D01F40051084321680860A0690421AF
:1023D00001EA104094F8241001F01001084321682C
:1023E00048602068C16921F40061C1616565012010
:1023F00084F85100002070BD10B586B00446142149
:102400006846FDF735FF14492068884221D11348FA
:102410000021026842F480420260006800F48040BB
:1024200005900E481038026842F00202026000680F
:1024300000F0020005904FF4604000900220CDE9CA
:102440000101032003900520049069460448FFF72A
:1024500033FB06B010BD0000003800404038024099
:10246000000402402DE9FF4F81B01D46934604460B
:102470004FF001090E9EFFF721FC074694F851002A
:102480006168012806D0B1F5827F3CD1A168C9BB43
:10249000042838D10298002871D0BBF1000FFBD07E
:1024A000002DF9D094F8500001282CD04FF0010AEB
:1024B00084F850A094F85100042802D0052084F834
:1024C00051004FF00008C4F85480C4F838B0E587D4
:1024D000A58702992163E586A586C4F84080C4F8E3
:1024E000448020680168490603D4016841F0400136
:1024F0000160E068B0F5006F606808D0F0B3012DAE
:1025000049D081E0FFE7022005B0BDE8F08F08B1B7
:10251000012D39D1206B21680088C860206B801C98
:102520002063E08E401EE0862EE0206881688907E7
:102530000FD5E18E69B1B9F1010F0AD1216B09887C
:10254000C160206B801C2063E08E401EE0864FF04F
:10255000000920688168C9070CD0E18F51B1C068BB
:10256000A16B0880A06B801CA063E08F401EE087F9
:102570004FF00109FFF7A2FBC01B01E00BE067E091
:10258000B04201D3701C50D1E08E0028CDD1E08F35
:102590000028CAD13EE0206B216800780873206BC8
:1025A000401C2063E08E401EE0862DE0206881689C
:1025B00089070FD5E18E69B1B9F1010F0AD1216BFD
:1025C00009780173206B401C2063E08E401EE0867A
:1025D0004FF0000920688168C9070CD0E18F51B124
:1025E000C068A16B0870A06B401CA063E08F401E08
:1025F000E0874FF00109FFF761FBC01BB04202D337
:10260000701C01D011E086B1E08E0028CED1E08FA1
:102610000028CBD13A463146204601F0A7FF50B101
:102620002020606584F8508012E084F851A084F87E
:102630005080032068E7A06818B92068C1688068E6
:10264000009084F851A084F85080606D0028F1D08B
:10265000012059E710B5401EB0F1807F01D3012061
:1026600010BD4FF0E02460610F21601703F010F9F6
:102670000020A06107202061002010BD7047704736
:1026800070B590F83C20012A32D0012480F83C40FB
:10269000022280F83D2003685A689D6822F0700687
:1026A0000A6832435A60134B02689A4214D0B2F15E
:1026B000804F11D0104B9A420ED0104B9A420BD043
:1026C0000F4B9A4208D00F4B9A4205D00E4B9A42BC
:1026D00002D00E4B9A4204D1496825F08003194379
:1026E000916080F83D40002180F83C10084670BDA4
:1026F000022070BD000001400004004000080040BE
:10270000000C00400004014000400140001800405F
:1027100010B5040003D094F83D0010B107E001208B
:1027200010BD002084F83C00204600F01FF8022075
:1027300084F83D00211D206802F046F8012084F84D
:10274000460084F83E0084F83F0084F8400084F896
:10275000410084F8420084F8430084F8440084F87F
:10276000450084F83D00002010BD000008B5016858
:102770002248B1F1804F11D0214A91421DD1016808
:1027800041F0080101600068002200F0080000909C
:1027900001213220FFF700FB32201FE0016841F0E9
:1027A000010101600068002200F001000090022198
:1027B0001C20FFF7F1FA1C2010E0124A914211D1BF
:1027C000016841F0100101600068002200F0100073
:1027D000009003213620FFF7DFFA3620BDE80840DD
:1027E000FFF7CCBA084A914207D1016841F02001B5
:1027F0000160006800F02000009008BD40380240F1
:10280000000C0040001000400014004090F83D1003
:10281000012901D001207047022180F83D10016894
:10282000CA6842F00102CA6000681149884214D0A7
:10283000B0F1804F11D00F4988420ED00E49884226
:102840000BD00E49884208D00D49884205D00D4969
:10285000884202D00C49884204D1816801F0070106
:10286000062903D0016841F0010101600020704792
:10287000000001400004004000080040000C00403F
:1028800000040140004001400018004070B50446BB
:1028900090F83C000025012817D0012684F83C6000
:1028A000022084F83D002068826822F0770222F43A
:1028B0007F4282600868502838D00DDC20284FD035
:1028C00005DC90B3102811D14AE0022070BD3028F9
:1028D00046D040280AD13BE060282FD070280DD088
:1028E000B0F5805F03D0B0F5005F12D0012584F809
:1028F0003D60002084F83C00284670BDCB68D1E9DB
:102900000121206801F0C8FF2068816841F077014B
:1029100009E0CB68D1E90121206801F0BDFF206802
:10292000816841F480418160E1E719E0CA68496843
:10293000206801F0C3FF5021206806E0CA6849689A
:10294000206801F0CCFF6021206801F0AFFFCEE7E6
:10295000CA684968206801F0B1FF40212068F4E7A7
:10296000226801461046F0E770472DE9F041044621
:102970000068C66805694FF00007A90713D5B107BD
:1029800011D5F91E01610120207720688069800738
:10299000204602D0FFF7E8FF04E000F07EF8204672
:1029A00000F07CF82777680716D5700714D52168E2
:1029B0006FF004000861022020772068806910F41D
:1029C000407F204602D0FFF7CFFF04E000F065F81B
:1029D000204600F063F82777280715D5300713D570
:1029E00021686FF008000861042020772068C06922
:1029F0008007204602D0FFF7B7FF04E000F04DF853
:102A0000204600F04BF82777E80616D5F00614D5D7
:102A100021686FF010000861082020772068C069E5
:102A200010F4407F204602D0FFF79EFF04E000F044
:102A300034F8204600F032F82777E80708D0F0078E
:102A400006D021686FF001000861204600F028F8E8
:102A5000280608D5300606D521686FF08000086189
:102A60002046FFF70BFE680608D5700606D52168DC
:102A70006FF040000861204600F040F8A8060AD533
:102A8000B00608D521686FF0200008612046BDE837
:102A9000F041FFF7F4BDBDE8F081704770470000DA
:102AA00010B50446104884420DD101F02FFD00F00E
:102AB000ADFC0E490868401C0860642803DB002058
:102AC000086000F07FFD0A49206888420AD1012091
:102AD00022F094FD07480168491C0160064801681E
:102AE000491C016010BD0000980800200C00002067
:102AF000001000406C0000207000002070477047FC
:102B000010B504460068406994F84110C0F3C01045
:102B1000212911D180B12068143050E8001F21F024
:102B2000800140E80012002AF5D1A06B08B1FEF741
:102B3000DDFD204602F0FFFB2068406994F842105A
:102B4000C0F38010222911D180B12068143050E8E0
:102B5000001F21F0400140E80012002AF5D1E06B8F
:102B600008B1FEF7C3FD204602F0BEFB002010BDF9
:102B700070470000F8B5016804460868CA684B69E8
:102B800010F00F0F4FF0000559D003F0010602F4CA
:102B90009077374365D0C10705D0D10503D5616C67
:102BA00041F001016164410705D5D90703D0616C8B
:102BB00041F002016164810705D5D90703D0616C3A
:102BC00041F004016164010707D502F0200131439F
:102BD00003D0616C41F008016164616C00293AD056
:102BE000800604D5900602D5204602F0B2FB20688C
:102BF0004069616CC0F38010090700D460B32046BF
:102C000002F072FB20684069400621D5206814302C
:102C100050E8001F21F0400140E80012002AF5D1E1
:102C2000E06BA8B172490165E06BFEF7A8FD0028D2
:102C300011D0E06B016D01B0BDE8F040084783069C
:102C40000FD593060DD52046BDE8F84002F081BBB4
:102C50002046FFF78DFFF8BD2046FFF789FF65642A
:102C6000F8BD266B2023012E7ED1C6067CD5D60664
:102C70007AD508684868009048694FF00206400617
:102C80004DD5E26B106840684FF480770004000C6B
:102C90003AD0A18D814237D9E085D069B8422DD094
:102CA00020680C3050E8001F21F4807140E80012C9
:102CB000002AF5D12068143050E8001F21F00101EE
:102CC00040E80012002AF5D12068143050E8001FB7
:102CD00021F0400140E80012002AF5D184F842308A
:102CE000256320680C3050E8001F21F0100140E8F7
:102CF0000012002AF5D1E06BFEF7F8FC6663A08DA8
:102D0000E18D401A81B206E0A18D8142A8D1D0693F
:102D1000B842A5D166632046FFF7F1FEF8BDA08D4D
:102D2000E18D401A81B2E08D0028F7D00029F5D05E
:102D300020680C3050E8002F22F4907240E8002701
:102D4000002FF5D12068143050E8002F22F0010246
:102D500040E80027002FF5D184F842302563206831
:102D60000C3050E8002F00E006E022F0100240E8AE
:102D70000023002BF3D1CDE705062BD5150629D569
:102D800094F841002128C9D1A068B0F5805F01D135
:102D90002069B0B1206A411C216221680078486036
:102DA000E08C401E0004000CE084B7D12068C168AC
:102DB00021F08001C1602068C16841F04001C1601C
:102DC000F8BD206A0088C0F308004860206A801CB3
:102DD0002062E5E74006F3D55006F1D5CA682046E3
:102DE00022F04002CA6084F8413000F0F7FAF8BDE2
:102DF000A151000870B5040004D094F841000025EA
:102E000010B106E0012070BD84F84050204600F06B
:102E100023F8242084F841002068C16821F400517F
:102E2000C160204602F0F6FA2068016921F4904161
:102E300001612068416921F02A0141612068C1686F
:102E400041F40051C1606564202084F8410084F899
:102E500042006563002070BD2DE9F04F87B0044645
:102E600014216846FDF704FAFD48DFF8F0831038B6
:102E7000D4F800C0FA4B03210222DFF8E8B3402760
:102E8000002506154FF00069C44556D1D3F800C09F
:102E90004CF4002CC3F800C01B6803F40023059316
:102EA000036843F001030360006800F0010005902F
:102EB0008DE826000820CDE9031069465846FEF744
:102EC000FBFDDFF8A883E8494046C8F80010C0E9D8
:102ED0000195C0E90356C8F81450C8F81850C8F84E
:102EE0001C50CA46C8F82050B146C8F82450FEF716
:102EF00029FD08B1FEF7B4F8DC4EC4F83C8060361A
:102F0000C8F83840C6E90275C6E90495B561D648E7
:102F1000F561356230307562C6E9000A3046FEF769
:102F200011FD08B1FEF79CF8A663002201213420B0
:102F3000B463FEF731FF342064E0DFF83483DFF858
:102F400020E34FF0070A0EF1040EC4455FD1DEF80E
:102F500000C000254CF0100CCEF800C0DEF80030A8
:102F600003F010030593036843F001030360006856
:102F7000CDE9025100F0010005904FF4C060CDE9A9
:102F80000002CDF810A069465846FEF795FDDFF81F
:102F9000DC82B84908F1C0084046C8F80010C0E912
:102FA0000195C0E90356C8F814504FF44031C8F8F1
:102FB0001850C8E90751C8F82450FEF7C3FC08B1FF
:102FC000FEF74EF8AC4DC4F83C80AA48C8F838402B
:102FD0007830AF60C5E900090020C5E903066861E3
:102FE000A861E861286268622846FEF7ABFC08B178
:102FF000FEF736F8A563002211462520AC63FEF7E4
:10300000CBFE2520FEF7BAFE07B0BDE8F08FDFF853
:103010006C82C44559D1D3F800C04CF4003CC3F8CD
:1030200000C01B6803F400330593036843F00103F9
:1030300003600068CDE9025100F0010005900C200A
:10304000CDE90002CDF810A069465846FEF734FDE0
:10305000DFF82482844908F160084046C8F8087007
:10306000C0E90356C8F81450C8F81850C8F81C50E6
:103070006031C8F82050C8E90019C8F82450FEF79C
:1030800061FC08B1FDF7ECFF7B4F7748C4F838804E
:10309000C0374830C8F838403860C7E90195C7E9FB
:1030A00003567D61BD61FD613D6238467D62FEF77C
:1030B00049FC08B1FDF7D4FFE76300220121262077
:1030C000BC63FEF769FE26209CE7DFF8B481C445A7
:1030D0005ED1D3F800C0A8464CF4802CC3F800C0E1
:1030E0001B6803F480230593036843F00203036025
:1030F0000068CDE9025100F0020005904FF44060F5
:10310000CDE90002CDF810A069465E48FEF7D4FC78
:103110005549DFF874A118395046CAF80010C0E9C3
:103120000195C0E90356CAF81450CAF81850CAF8F5
:103130001C50CAF82050CAF82450FEF703FC08B10E
:10314000FDF78EFF504DC4F83CA047486035CAF8E3
:1031500038401830AF60C5E90009C5E90386C5F8F5
:1031600014804FF44031C5F81880C5E9078128461E
:10317000C5F82480FEF7E6FB08B1FDF771FFA563F3
:10318000002201212720AC63FEF706FE272039E745
:103190003E4B9C457FF438AFDEF800C0A8464CF0AB
:1031A000200CCEF800C0DEF8003003F020030593B9
:1031B000036843F004030360006800F00400059016
:1031C000C0208DE825000820CDE90310694630486D
:1031D000FEF772FCDFF8B090264909F1C0091839F2
:1031E00048464FF0206AC9F80010C0E901A5C0E9BF
:1031F0000356C9F81450C9F81850C9F81C50C9F83A
:103200002050C9F82450FEF79DFB08B1FDF728FFB8
:10321000204DC4F83C901748C9F838406030AF6082
:10322000C5E9000AC5E90386C5F81480C5F8188009
:10323000C5F81C80C5F820802846C5F82480FEF714
:1032400081FB08B1FDF70CFFA56300221146472062
:10325000AC63FEF7A1FD4720D4E60000004C00401F
:10326000403802400000024040600240200B002035
:103270000010014040640240400C00200044004027
:103280000048004000040240600D0020001401408E
:1032900000080240800E002090F84230202B01D020
:1032A0000220704721B11AB10023036302F038B93C
:1032B00001207047704770472DE9F843044690F8A5
:1032C0004100984616460D46202802D00220BDE84F
:1032D000F88385B17EB100206064212084F841002C
:1032E000FEF7ECFCA6848146E684A0682027B0F5B2
:1032F000805F02D003E00120E9E7206910B12E468B
:1033000000250EE000260CE08021204602F058F94E
:10331000A8B9C6B116F8010B21684860E08C401EC0
:10332000E084E08C4B464FF00002CDF8008000288E
:10333000EAD14FF04001204602F042F940B184F852
:1033400041700320C3E735F8020BC0F30800E3E740
:1033500084F841700020BAE770B5044690F8410047
:10336000202801D0022070BD01B3FAB12162A284ED
:10337000E28400206064212384F84130A56B144B63
:10338000EB63A56B134B2B64A56B134BEB64A36B27
:10339000186520681346A56B021D2846FEF73CFB06
:1033A00030B110206064202084F84100012070BDFD
:1033B00021686FF0400008602068143050E8001F5A
:1033C00041F0800140E80012002AF5D1002070BDD4
:1033D0009D520008DF520008AF5100087047704747
:1033E0000948002180F80C1180F80D1180F80E11A9
:1033F00080F8171180F8181180F8191180F81A1147
:1034000080F81B1170470000740F002010B5204891
:1034100000F0A8FF1E481F49027D152A1DD0142A5E
:103420001AD1827881F80C21C27881F80D210279B5
:1034300081F80E21427981F81721827981F81821CB
:10344000C27981F81921027A81F81A21427A81F829
:103450001B21022180F8281010BD827881F80C21F0
:10346000C27881F80D21027981F80E21427981F824
:103470001721827981F81821C27981F81921027AFD
:1034800081F81A21427A81F81B210121E2E700002C
:10349000C6100020740F0020FEE72DE9F04104461D
:1034A0001D4616460F462A2000F094FA204600F0EA
:1034B00086FA304600F083FA2B2000F08BFA38466B
:1034C00000F07DFA284600F07AFABDE8F0412C20A1
:1034D00000F080BA70B5354D354C2868012803D00E
:1034E000D4F818011F2801D102F0ACF9286830B9CE
:1034F000D4F818011E2800D008B902F091F92D481F
:10350000006810B91E20C4F818012B4D2B4E2C4C0E
:10351000286858B92078002846D00020207086F806
:103520009000FDF773FE002023F0ADF82868012815
:1035300008D12078012837D00120207086F890002B
:1035400023F0A1F82868022808D1207802282BD07F
:103550000220207086F8900023F095F82868032850
:1035600008D1207803281FD00320207086F890000F
:1035700023F089F82868042808D12078042813D07B
:103580000420207086F8900023F07DF82868052834
:103590000AD12078052807D00520207086F89000F1
:1035A000BDE8704023F06FB870BD00009C000020A3
:1035B0005C050020980000206400002080060020A8
:1035C0007501002070B5194D2868012802D1052029
:1035D000FDF71CFE164E174C306801280CD194F8EC
:1035E0007A000E2808D00F2806D0112804D01228FF
:1035F00002D00320FDF70AFE2868012812D03068A7
:1036000001280FD00C48006860B994F87A000E28A1
:1036100008D00F2806D0112804D0122802D000208C
:10362000FDF7F4FDBDE87040FDF704BDA0000020EB
:10363000980000201C070020640000202DE9FE4FA8
:10364000161ACDE900104FF000085D1A47464FF0FA
:10365000FF30002E02DD4FF0010102E003D14FF0F8
:1036600000018B4602E08346C6F10006002D02DD14
:103670004FF0010002E003D14FF00000824602E06B
:103680008246C5F10005AE4201DD344600E02C461D
:10369000601C4FF00009029019E000980C9A81B26A
:1036A000019880B200F018F8B0442F44A04504DD22
:1036B0000198A8EB040858440190A74203DD009844
:1036C0003F1B5044009009F101001FFA80F9029954
:1036D0008945E2DBBDE8FE8F10B514460B46024675
:1036E000FFF7DBFE2046BDE8104000F068B92DE989
:1036F000F04780461F46581E83B21646501E82B2BF
:103700000C464046DDF82090FFF7C7FE0AE045462C
:1037100004E0484600F053F96D1CADB2B542F8D351
:10372000641CA4B2BC42F2D3BDE8F08710B5644C6F
:10373000002210212046FEF7BCFA642006F0ECFCC3
:10374000012210212046FEF7B4FA642006F0E4FCC2
:10375000012202212046FEF7ACFA642006F0DCFCD0
:10376000112000F037F9782006F0D6FCF02000F0A8
:1037700031F9C32000F044F9F02000F02BF9962035
:1037800000F03EF9362000F025F9E82000F038F985
:103790003A2000F01FF9052000F032F9E82000F08F
:1037A00019F9402000F02CF9822000F029F90720B7
:1037B00000F026F9182000F023F9272000F020F966
:1037C0000A2000F01DF9B62000F01AF9332000F0AD
:1037D00017F9C52000F0FEF8272000F011F9C220EB
:1037E00000F0F8F8A72000F00BF9E02000F0F2F864
:1037F000F02000F005F9012000F002F9062000F0A9
:10380000FFF80F2000F0FCF8122000F0F9F81D205E
:1038100000F0F6F8362000F0F3F8542000F0F0F84D
:10382000442000F0EDF80C2000F0EAF8182000F039
:10383000E7F8162000F0E4F8132000F0E1F8152076
:1038400000F0DEF8E12000F0C5F8F02000F0D8F834
:10385000012000F0D5F8052000F0D2F80A2000F091
:10386000CFF80B2000F0CCF8072000F0C9F8322088
:1038700000F0C6F8442000F0C3F8442000F0C0F87F
:103880000C2000F0BDF8182000F0BAF8172000F066
:10389000B7F8132000F0B4F8162000F0B1F8F020CB
:1038A00000F098F83C2000F0ABF8F02000F092F81F
:1038B000692000F0A5F8BDE81040292000F08AB882
:1038C000000C02402DE9FF4F81B00446DDE90F7B7B
:1038D0004FEA570800904FEAD80000FB07FA203A59
:1038E000D0B20390029802993844401E83B204EB90
:1038F0000800401E82B22046FFF7CFFD002637E0C9
:10390000102F24D0202F35D11C49039801EB8010B3
:103910005FF0000510F80690BBF1000F4FF00100BA
:1039200000FA05F000EA090016D020B12046049AFA
:103930000299FFF7D1FE641C0098A4B2211A4145F8
:1039400010D10298009C401C80B202900EE00C49FD
:10395000039801EB0010DBE708B1049800E00E9833
:1039600000F02DF86D1CEDB2082DD5D3761CB6B243
:103970005645C5D305B0BDE8F08F0000FCCC020869
:103980000CC702082DE9FE4F9946DDE90D67144684
:103990008A460546DDF830800CE0CDF800804B46C5
:1039A00051462846CDE90167FFF78CFF05EB56002D
:1039B00085B2641C2278002AEFD1BDE8FE8F10B5D5
:1039C0000446000A00F01CF8E0B2BDE8104000F028
:1039D00017B8000070B5094D06464FF400440022A8
:1039E00021462846FEF765F9304600F009F82146E1
:1039F0002846BDE870400122FEF75BB9000C02408A
:103A00002DE9F047164E05464FF4806900224946DD
:103A10003046FEF74EF90024DFF848807715002283
:103A200039463046FEF745F9280601D5012200E067
:103A3000002220214046FEF73CF90122394630465B
:103A4000FEF737F96806641C050EE4B2082CE6D3CD
:103A500049463046BDE8F0470122FEF72AB900008A
:103A600000100240000C02400C4910B50020087004
:103A700000F0B4F800F070F800F080F8C820FEF70D
:103A800003F8064905220F310548FFF765FCBDE83C
:103A900010404FF47A70FDF7F7BF00007501002069
:103AA000900A002010B5012816D0022817D003284C
:103AB00019D004281BD005281DD006281FD00728A0
:103AC00021D0082823D0092825D00A2834D00B2853
:103AD00036D00C2838D027E00D221D491EE01C49A5
:103AE0000D220D311AE01A490D221A3116E018493B
:103AF0000D22273112E016490D2234310EE014490F
:103B00000D2241310AE012490D224E3106E01049E2
:103B10000D225B3102E00E490D2268310D48FFF79E
:103B20001BFC6420FDF7B0FF4FF47A70FDF7ACFF8B
:103B3000BDE8104000F032B805490D227531EDE7BF
:103B400003490D228231E9E701490D228F31E5E772
:103B5000A3010020900A002010B56420FDF794FF17
:103B6000142204490448FFF7F7FBBDE81040642025
:103B7000FDF78ABF8F010020900A002010B50622B1
:103B800004490548FFF7E8FBBDE810406420FDF755
:103B90007BBF000089010020900A002010B505229B
:103BA00004490548FFF7D8FBBDE810406420FDF745
:103BB0006BBF00007A010020900A002010B505229A
:103BC00004490548FFF7C8FBBDE810404FF47A7080
:103BD000FDF75ABF84010020900A002005480068C4
:103BE000C16841F01001C160642203490148FFF738
:103BF00053BB0000900A00209E1000207FB50024D7
:103C000015480094019402941249039401604FF402
:103C10008031C0E901140461047680F820400F4926
:103C2000C0E90A140125C561C46080F830404561CF
:103C3000FDF739FC08B1FDF713FA0B20CDE90005BB
:103C4000694602940448FDF785FB002801D0FDF782
:103C500007FA7FBD00200140980700200100000FF7
:103C6000354808B5016841F480010160016801F43C
:103C700080010091016841F4001101600068002298
:103C800000F40010009011460C20FEF785F80C207F
:103C9000FEF774F8002211460D20FEF77DF80D2086
:103CA000FEF76CF8002211460E20FEF775F80E2084
:103CB000FEF764F8002211460F20FEF76DF80F2082
:103CC000FEF75CF8002211461020FEF765F8102080
:103CD000FEF754F8002211461120FEF75DF811207E
:103CE000FEF74CF8002211463820FEF755F8382030
:103CF000FEF744F8002211463920FEF74DF839202E
:103D0000FEF73CF8002211463A20FEF745F83A202B
:103D1000FEF734F8002211464520FEF73DF8452015
:103D2000FEF72CF8002211464620FEF735F8BDE8D4
:103D300008404620FEF722B8303802402DE9F04F07
:103D400087B014216846FCF793FA70480024016894
:103D500041F080010160016801F080010591016876
:103D600041F004010160016801F00401059101685E
:103D700041F001010160016801F001010591016854
:103D800041F010010160016801F010010591016826
:103D900041F002010160016801F002010591016832
:103DA00041F0080101600068594E00F008000590DC
:103DB000002208213046FDF77CFF002249F2026113
:103DC0005448FDF776FFDFF85091002248F2321197
:103DD0004846FDF76EFF012251024846FDF769FF94
:103DE000DFF838A14FF4C058002241465046FDF795
:103DF00060FF0122D70339465046FDF75AFFDFF82E
:103E000020B1012240215846FDF753FF01221146FF
:103E10004048FDF74EFF0520CDE9000469463046D5
:103E20000294FDF749FE082000900125CDE90154D8
:103E3000694630460394FDF73FFE7020CDE900044B
:103E4000694650460294FDF737FE28028DE831009E
:103E500069463048FDF730FE4FF4B0500226CDE9F8
:103E60000005CDE9024669462A48FDF725FEA8036C
:103E70008DE8510069462748FDF71EFE0097CDE901
:103E80000154694623480394FDF716FE2803CDE943
:103E90000004694658460294FDF70EFE48F232309F
:103EA000CDE90005CDE9024669464846FDF704FE26
:103EB000CDE90264CDE9008569465046FDF7FCFD79
:103EC0000097CDE90154694650460394FDF7F4FD8F
:103ED0004020009011200394CDE901056946584621
:103EE000FDF7EAFDCDE902540095694609480195C0
:103EF000FDF7E2FDCDE90065CDE9026469460548BC
:103F0000FDF7DAFD07B0BDE8F08F00003038024061
:103F10000008024000100240000C02400000024075
:103F200000040240104810B50E4901604FF4827140
:103F3000416000218160C1604FF400720161C0E9FD
:103F400005121022C0E90721416281620A21C16283
:103F5000FEF7F4F9002803D0BDE81040FDF780B863
:103F600010BD0000003800404008002010B586B0A9
:103F700000241748009401940294039404944FF091
:103F80008041059401605321C0E9011441F2873159
:103F9000C0E9031480218161FEF7BAFB08B1FDF787
:103FA0005FF84FF48050009069460948FEF76EFCB8
:103FB00008B1FDF755F8049404A905480594FEF7E7
:103FC0005FFB002801D0FDF74BF806B010BD0000E4
:103FD0009808002010B586B000241748009401947A
:103FE0000294039404941349059401605321C0E999
:103FF00001144FF6FF71C0E903148461FEF788FBDA
:1040000008B1FDF72DF84FF48050009069460A483A
:10401000FEF73CFC08B1FDF723F8049404A9064818
:104020000594FEF72DFB002801D0FDF719F806B026
:1040300010BD0000000C0040E00800201CB500246A
:104040000E4800940C49019401601321C0E9011449
:1040500042F2CF018461C160FEF75AFB08B1FCF760
:10406000FFFF0094694605480194FEF709FB00280C
:1040700001D0FCF7F5FF1CBD00100040280900200E
:104080001CB500240E4800940C49019401600321E2
:10409000C0E9011442F2CF018461C160FEF738FB30
:1040A00008B1FCF7DDFF0094694605480194FEF76E
:1040B000E7FA002801D0FCF7D3FF1CBD0014004034
:1040C000700900200C4810B50A4901604FF4E13135
:1040D0004160002181600C22C160C0E9041281614D
:1040E000C161FEF787FE002803D0BDE81040FCF751
:1040F000B7BF10BD004C0040B80900200C4810B5F7
:104100000A4901604FF4E1314160002181600C22D5
:10411000C160C0E904128161C161FEF76BFE002835
:1041200003D0BDE81040FCF79BBF10BD001001405C
:10413000000A00200C4810B50A4901604FF41641EE
:104140004160002181600C22C160C0E904128161DC
:10415000C161FEF74FFE002803D0BDE81040FCF718
:104160007FBF10BD00440040480A00200C4810B535
:104170000A4901604FF4E1314160002181600C2265
:10418000C160C0E904128161C161FEF733FE0028FD
:1041900003D0BDE81040FCF763BF10BD00480040ED
:1041A000900A00200C4810B50A4901604FF4E13133
:1041B0004160002181600C22C160C0E9041281616C
:1041C000C161FEF717FE002803D0BDE81040FCF7E0
:1041D00047BF10BD00140140D80A0020FEE70000D0
:1041E0000FB40D4870B54FF4807505AC2946FCF747
:1041F0003FF8234629460848049A01F033FB064855
:10420000FCF741F882B24FF6FF7303490348FFF70A
:1042100053F870BC5DF814FB5C040020D80A002041
:10422000FEE700001CB50FA10522D1E90001CDE990
:1042300000016946302000F0AFF8052269461020E1
:1042400000F048F8002069460A5CA52A03D1401C0A
:10425000C0B20528F8D3052801D001201CBD0020DC
:104260001CBD0000A5A5A5A5A500000070B5174DB3
:104270004FF48074002221462846FDF71AFD0F21D5
:10428000202000F0B5F80121212000F0B1F8012133
:10429000222000F0ADF82821252000F0A9F80F21F8
:1042A000262000F0A5F82021312000F0A1F80522F9
:1042B00007492A2000F070F8012221462846FDF720
:1042C000F8FCBDE870400120FDF7DEBB000C0240A9
:1042D000459003082DE9F047DFF8449015460F4656
:1042E00004464FF40078002241464846FDF7E1FCC1
:1042F00021460C4800F0CEF90646002406E0FF21D6
:10430000084800F0C7F93855641CE4B2AC42F6D353
:10431000012241464846FDF7CCFC3046BDE8F08717
:10432000000C02404008002070B50C4E04464FF4CB
:104330000075002229463046FDF7BBFC214608489F
:1043400000F0A8F9FF21064800F0A4F90446012274
:1043500029463046FDF7ADFC204670BD000C0240FA
:104360004008002070B505460720FFF7DDFF044632
:104370000146272000F03CF860060AD52022294695
:104380006120FFF7A7FFFF21E22000F031F80020B5
:1043900070BD012070BD00002DE9F047DFF84890A6
:1043A00016460D4604464FF4007800224146484622
:1043B000FDF77FFC21460D4800F06CF9074600240C
:1043C00007E000BF15F8011B084800F063F9641C02
:1043D000E4B2B442F6D3012241464846FDF769FCF7
:1043E0003846BDE8F0870000000C0240400800207D
:1043F0002DE9F0410D4E0F4604464FF400750022A2
:1044000029463046FDF755FC2146094800F042F99F
:1044100004463946064800F03DF901222946304657
:10442000FDF747FC2046BDE8F0810000000C02408B
:10443000400800200020074902460B18401C83F862
:1044400091200A28F9DB00200A54401C6328FBDB7A
:10445000704700008006002070B5294D0020295CBF
:10446000242907D0622802DA401C6428F7DB95F87B
:10447000684042E085F86800F9E7285D262814D1F5
:10448000281910F8090C242836D1002021182944B5
:104490002A1811F8081C401C82F87F100828F5DB48
:1044A00017487F30FBF70DFF2867285D5E2814D181
:1044B000281910F8090C26281ED10020211829449B
:1044C0002A1811F8081C401C82F875100828F5DB22
:1044D0000B487530FBF7F5FEE866285D40280BD1E8
:1044E000281910F8021C5E2906D110F8010C0549A4
:1044F00085F8740002200880641C632CBDDB70BD4D
:1045000080060020740000207047000010B5FCF702
:1045100003FB11480168C1B100EE101ADFED0F0A6C
:10452000B8EEC00A60EE200A9FED0D0A60EE800A28
:10453000C0ED1E0A80EE801A9FED0A0A21EE000AE5
:10454000BDEEC00AB8EEC00A03E09FED070A80ED99
:104550001E0A80ED1F0A10BDF010002000008039F7
:10456000333353400000C84200000000F8B5154640
:104570000E460B46009204460122022100F02CF860
:10458000A0B9134813490068B0FBF1F04FF47A71F9
:10459000484300906068B0F5827F0DD13346002219
:1045A00080212046009500F017F870B1606D40F052
:1045B000200060650320F8BD009830B1401E0090D7
:1045C00020688068C0430006F6D50020F8BD0000D2
:1045D0002000002000366E012DE9F8431E4691466A
:1045E00088460446089DFDF769FB401B351AFDF718
:1045F00065FB074626480068C0F3CB3068430AE0F5
:10460000701C09D0FDF75AFBC01BA8420FD275B130
:104610000098B8B3401E00902068816838EA010015
:1046200033D000214945EBD10020BDE8F883206854
:10463000416821F0E00141606068B0F5827F0BD1F4
:10464000A068B0F5004F02D0B0F5806F04D12068AB
:10465000016821F040010160A06AB0F5005F09D156
:104660002068016821F4005101602068016841F46C
:1046700000510160012084F85100002084F85000AE
:104680000320D2E7FFE70025C6E70121CAE70000C3
:10469000200000203EB5FF248DF80810012301AA58
:1046A00002A90094FDF7DEFE08B18DF804409DF8E4
:1046B00004003EBD704700000A4601464FF6FF73F6
:1046C0000148FEF7F9BD0000000A0020064808A1D5
:1046D00090ED1F0A0548BDEEC00A10EE102AC26414
:1046E000806B19F0F0BA0000F01000207800002074
:1046F00025640000FDF7E8BA30B593B03021684674
:10470000FBF7B6FD14210CA8FBF7B2FD1D480025F0
:10471000016841F080510160006800F08050119004
:104720001948016841F4804101600068022400F4E6
:104730008040119001200090000401908001CDE99B
:10474000064008AA0420A82182E813000B906846BE
:10475000FDF73EFC08B172B6FEE70CA90F2081E818
:1047600031004FF4A0500F904FF48050109005216D
:104770000CA8FDF743FB002801D072B6FEE713B08A
:1047800030BD00004038024000700040024801681F
:1047900041F470010160704788ED00E00148FEF7C8
:1047A000E4B800009808002002490420486002484C
:1047B000FEF7DBB80C000020E00800200148FEF7FF
:1047C000D4B8000028090020F0B50268274B284D16
:1047D000284E294F294C4FF0804C984209D0604513
:1047E00007D0A84205D0B04203D0B84201D0A042C1
:1047F00004D122F0700E4A6842EA0E0298421BD0A1
:10480000604519D0A84217D0B04215D0B84213D095
:10481000A04211D01A4DA8420ED01A4DA8420BD07A
:10482000194DA84208D0194DA84205D0184DA842EC
:1048300002D0184DA84203D122F44075CA682A4319
:104840004D6922F080022A438D68C5620D68856239
:10485000984201D0A04201D109690163016841F089
:1048600004010160012141610260F0BD00000140CE
:104870000004004000080040000C0040000401401B
:104880000040014000440140004801400018004041
:10489000001C00400020004010B5846842EA03225A
:1048A00024F47F440A432243826010BD826822F0D0
:1048B00070020A4342F007018160704710B5036A35
:1048C000046A24F001040462846924F0F00444EAD8
:1048D000021423F00A020A438461026210BD10B57B
:1048E000036A046A24F010040462846923F0A003BC
:1048F00024F4704444EA023243EA01118261016205
:1049000010BD00002DE9F04F00242DED0A8B87B07B
:104910004FF6FF764FF4A0734FF4F0722146204615
:104920000096FEF7E4FE4FF010084FF47849CDE909
:10493000006800274D464B46FAA228210520029721
:10494000FFF720F814212A46084600F05BFAFD4DD7
:1049500085F820709FEDFC0A4FF0010A85ED090AE9
:104960009FEDFAAB9FEDFB8B4FF4967B69680120BE
:10497000884795F82000BAEB901FF7D120F040004F
:1049800085F8200003A8A98920F8241000EB8400F2
:10499000641CE98AE4B24180012C7DD0022C7CD0D9
:1049A000032C7BD0042CE1D1BDF80C00BDF8101015
:1049B000401A00D54042BDF80E10BDF81220891AE9
:1049C00000D54942404301FB0100FBF787FC41EC65
:1049D000100B00F071FF51EC100BFBF78CFC80B258
:1049E0000090BDF81400BDF81810401A00D54042E0
:1049F000BDF81610BDF81A20891A00D54942404367
:104A000001FB0100FBF76AFC41EC100B00F054FFC6
:104A100051EC100BFBF76FFC84B2009800EE100A0B
:104A2000F8EE400A00EE104AB8EE401A80EE810A15
:104A300010EE100AFBF778FC41EC190B53EC1A2B23
:104A4000FBF786FC7FD353EC182B51EC190BFBF7CB
:104A500097FC78D30098002875D0002C73D0BDF84F
:104A60000C00BDF81410411A00D54942BDF80E00E3
:104A7000BDF81620801A00D54042494340430844FF
:104A8000FBF72CFC41EC100B00F016FF51EC100B67
:104A9000FBF731FC84B202E037E03EE049E0BDF8CC
:104AA0001000BDF81810401A00D54042BDF8121091
:104AB000BDF81A20891A00D54942404301FB010084
:104AC000FBF70CFC41EC100B00F0F6FE51EC100B68
:104AD000FBF711FC00EE104A80B2F8EE400A00EE3F
:104AE000100AB8EE401A80EE810A10EE100AFBF7A9
:104AF0001BFCB0EE4ABAF0EE6ABA41EC190B53EC6B
:104B00001B2BFBF725FC41D21DE014213246084641
:104B100000F078F94A46142112E0324614214FF48D
:104B2000E67000F06FF94A465946142000F06AF921
:104B30001CE732465946142000F064F94A465946AB
:104B40004FF4E670F2E70024324659464FF4E6701F
:104B500000F058F914214A46084600F053F9CDE90F
:104B600000684B467DA2282105200297FEF70AFF28
:104B7000CDE900684B4681A23C2105200297FEF753
:104B800001FF4FF47A7005F0C7FAEFE6B0EE48CABD
:104B9000F0EE68CA53EC1C2B51EC190BFBF7F0FB41
:104BA000D1D3BDF81000BDF81410411A00D5494208
:104BB000BDF81200BDF81620801A00D540424943C6
:104BC00040430844FBF78AFB41EC100B00F074FEF5
:104BD00051EC100BFBF78FFB84B2BDF80C00BDF855
:104BE0001810401A00D54042BDF80E10BDF81A202A
:104BF000891A00D54942404301FB0100FBF76EFBD7
:104C000041EC100B00F058FE51EC100BFBF773FB5E
:104C100000EE104A80B2F8EE400A00EE100AB8EE3C
:104C2000401A80EE810A10EE100AFBF77DFB41EC82
:104C3000190B53EC1B2BFBF78BFB84D353EC1C2B76
:104C400051EC190BFBF79CFBAAD3BDF81010BDF873
:104C50000C000A1A00EE102AF8EEC00A9FED4F1A57
:104C6000084481EE200A00EE900AB8EE601A85ED45
:104C7000090ADFED4B0A40EE410AB6EE000A60EE8B
:104C8000800AFDEEE00A10EE900AA885BDF8161025
:104C9000BDF80E000A1A00EE902AB8EEE01ADFED19
:104CA000411A08443246C1EE810A01EE100A594603
:104CB000F8EE411A9FED3C1AC5ED0A0A00EEE11A22
:104CC00021EE000ABDEEC00A10EE100AE8854FF48E
:104CD000E67000F097F8CDE9006845464C464B4633
:104CE00032A2282105200297FEF74CFECDE900658F
:104CF000234636A23C2105200297FEF743FE4FF4DF
:104D00007A7005F009FACDE90065234637A228211B
:104D100005200297FEF736FE07B0BDEC0A8BBDE812
:104D2000F08F0000506C656173652061646A757373
:104D3000746D656E74207468652073637265656E4A
:104D40002E0000002C000020000000006666666651
:104D50006666EE3FCDCCCCCCCCCCF03F546F7563C7
:104D6000682041646A7573742046696C656421200B
:104D7000202020202020202020000000506C656191
:104D800073652041646A75737420416761696E219F
:104D90002020202020202020200000000000DC43D4
:104DA0000000F04300008C430000A043546F756383
:104DB000682053637265656E2041646A7573742060
:104DC0004F4B2120202020202000000020202020E8
:104DD00020202020202020202020202020202020D3
:104DE0002020202020202020200000002020202023
:104DF00020202020202020202020202020202020B3
:104E0000202020002DE9F843054616460D3000927B
:104E100082B2A5F10C000C4680B20B46FEF70EFCE8
:104E200004F10D0083B2193881B22A46104600966B
:104E3000FEF704FC671C05F10109B9B21FFA89F0FD
:104E40003246FEF749FCA5F10108B9B21FFA88F015
:104E50003246FEF741FC671EB9B21FFA89F03246AE
:104E6000FEF73AFCB9B21FFA88F03246FEF734FC7E
:104E700001B0334621462846BDE8F0430622FCF740
:104E80007BB8000009489FED080A4FF4FE7180EDE1
:104E9000090A81859FED060A6FF01B0180ED0A0A61
:104EA000C18500207047000005A40DBE2C00002025
:104EB000CDB1BC3D2DE9F04700271D4C3D463E4697
:104EC000C4F8A4721B49C1F89472C4F8B07204F516
:104ED000297400F015F9062005F03CF92660012040
:104EE00005F038F94FF00108C4F80080404605F09D
:104EF00031F92660B14646464FF6FF78A4F529748D
:104F000008EA4505C4F8A492012005F023F9C4F885
:104F1000A462D4F8200208B16D1CADB27F1CFFB2B0
:104F2000102FEDD32809C4F8B062BDE8F087000067
:104F30000000424200804142FEB5064600256C4614
:104F40003046FFF7B7FF24F815006D1CADB2052DF4
:104F5000F6D30020431C99B20CE000BF34F81020B7
:104F600034F81150AA4203D924F8105024F8112023
:104F7000491C89B20529F1D398B20428EAD300214B
:104F80005FF0010034F81020401C114480B289B257
:104F90000428F7D30320B1FBF0F0FEBD2DE9F0416A
:104FA000074C06460D462078FFF7C6FF0746607897
:104FB000FFF7C2FF378028800120BDE8F0810000A4
:104FC000280000207FB50C460546694602A8FFF779
:104FD000E5FF00282FD001A903A8FFF7DFFF002875
:104FE00029D0BDF80C30BDF80820934203D803F156
:104FF0003200824205D39A421FD802F13200834226
:105000001BD2BDF80410BDF80000814203D801F1A5
:105010003206B04204D388420FD8323081420CD2DB
:10502000D01840082880BDF80000BDF804100844DE
:1050300040082080012004B070BD0020FBE7000084
:1050400002462D4810B5D0F838022C4C40B194F8E7
:105050002000010643D520F0800084F8200045E0C0
:10506000264800F116010C3012B1FFF7ABFF2AE021
:10507000FFF7A8FF38B3B4F92C0094ED091A00EE3D
:10508000100AA08900EE900AB8EEC00AF8EE600A95
:1050900001EE200ABCEEC00A10EE100AA081B4F99D
:1050A0002E0094ED0A1A00EE100AE08A00EE900A33
:1050B000B8EEC00AF8EE600A01EE200ABCEEC00AA3
:1050C00010EE100AE08294F8200000060ED4C020F2
:1050D00084F82000A089A082E08AE08306E0002016
:1050E000A082E0834FF6FF70A081E08294F8200058
:1050F00000F0800010BD0000000042422C000020A3
:105100002DE9F0470024DFF838900E4E054627467B
:105110004FF00108280602D5C9F8948201E0C9F8C9
:1051200094726806050EC6F8A472012005F012F804
:10513000C6F8A482641CE4B2082CEBD3BDE8F08767
:105140000080414200004242114908B501204860F8
:10515000104800680168C1F3001179B10168406826
:1051600000900C48FDF7CCFC0B48006840680B49E8
:10517000C0F16400A1F8660000F01CFB642207493E
:105180000448FEF789F8BDE808400248FDF7F2BC84
:105190000C000020B8090020200B00201C07002074
:1051A00010B5806B0021C185FDF7E2FC10BD70B524
:1051B000846B2068406994F84110C0F3C01000254A
:1051C000212904D118B1E584204600F0B4F8206804
:1051D000406994F84210C0F38010222904D118B11C
:1051E000E585204600F080F8606C40F010006064B7
:1051F0002046FDF7BDFC70BD10B50146806B096807
:1052000009684FF00002C9052ED4C28501680C312F
:1052100051E8003F23F4807341E80034002CF5D1BD
:105220000168143151E8003F23F0010341E80034E4
:10523000002CF5D10168143151E8003F23F0400300
:1052400041E80034002CF5D1202180F84210016B98
:10525000012909D101680C3151E8003F23F0100306
:1052600041E80034002CF5D14263016B012902D0E2
:10527000FEF720F810BD818DFDF741FC10BD10B583
:10528000806B01214163016B012902D0FEF713F805
:1052900010BD818D4908FDF732FC10BD10B50146E7
:1052A000806B09680968C90516D40021C1840168AA
:1052B000143151E8002F22F0800241E80023002B36
:1052C000F5D101680C3151E8002F42F0400241E86D
:1052D0000023002BF5D110BDFEF780F810BD10B5EE
:1052E000806BFEF77CF810BD01680C3151E8002F8F
:1052F00022F4907241E80023002BF5D101681431AB
:1053000051E8002F22F0010241E80023002BF5D1E3
:10531000016B012909D101680C3151E8002F22F0FD
:10532000100241E80023002BF5D1202180F8421023
:1053300000210163704701680C3151E8002F22F011
:10534000C00241E80023002BF5D1202180F8411054
:10535000704708B590F84210222901D0022008BDFC
:1053600082684FF480539A4201D1016921B1816A68
:105370009A421BD04AB10AE00268816A5268C2F3BD
:1053800008020A80816A891C08E0026972B1026819
:10539000526802F07F020A70816A491C8162C18DE5
:1053A000491E0904090CC18503D01BE0026852683C
:1053B000F1E70168CA6822F02002CA600168CA6881
:1053C00022F48072CA6001684A6922F001024A61CF
:1053D000202180F8421000214163026B012A03D092
:1053E000FDF768FF002008BD016301680C3151E83A
:1053F000002F22F0100241E80023002BF5D10168B4
:105400000A68D20602D50A6849680091818DFDF7C5
:1054100076FBE7E770B5044600680169E26821F4AD
:105420004051114301612169A068E2690843616943
:10543000114308432168CA6849F20C639A43024346
:10544000CA6020684169A26921F440711143416139
:1054500031492068884202D03049884202D1FCF7A5
:1054600077FD01E0FCF764FDE26900231921642562
:105470003226B2F5004F626828D0A0FB0101930FDD
:105480009200FAF79DFE0146B0FBF5F06FF01802AE
:10549000504301EB800006EB0010B0FBF5F000F08C
:1054A000F002B1FBF5F002EB0012B1FBF5F06FF08A
:1054B0001803584301EB800006EB0010B0FBF5F039
:1054C00000F00F0021681044886070BDA0FB01014E
:1054D00092185B41FAF774FE0146B0FBF5F0020149
:1054E000B1FBF5F06FF01803584301EB800006EBB9
:1054F000C000B0FBF5F000F0F80002EB4002B1FB99
:10550000F5F0584301EB800006EBC000B0FBF5F06E
:1055100000F00700D6E70000001001400014014031
:1055200038B58162044682850020134660642222D9
:1055300084F84220E56B1F4AEA63E56B1E4A2A6441
:10554000E56B1E4AEA64E26B10650A462168E06B6F
:10555000091DFCF761FA30B110206064202084F846
:105560004200012038BD2068016840680090206931
:1055700048B120680C3050E8001F41F4807140E8C9
:105580000012002AF5D12068143050E8001F41F0C5
:10559000010140E80012002AF5D12068143050E8DB
:1055A000001F41F0400140E80012002AF5D1002020
:1055B00038BD0000F95100087F520008AF510008C3
:1055C0002DE9F843984617460D460446089E24E008
:1055D000701C22D0FCF772FBA0EB0800B0421AD876
:1055E000CEB12068C168490717D5802D15D0402D50
:1055F00013D00168C94309070FD40168002540682A
:1056000000902046FFF770FE0820606484F8405048
:105610000120BDE8F8830320FBE72068006835EA35
:10562000000004D00020B842D2D00020F1E70120D1
:10563000F9E70000114908B50520486010480068E6
:105640000168C1F3001179B10168406800900C480D
:10565000FDF756FA0B48006840680B49C0F164003A
:10566000A1F86600FEF7F8FE642207490448FDF73A
:1056700013FEBDE808400248FDF77CBA0C0000208C
:10568000000A0020E00B002080060020104908B529
:10569000022048600F4800680168C1F3001169B139
:1056A0000168406800900B48FDF72AFA0A48006834
:1056B00040680A49C0F16400A1F8CA0064220749A1
:1056C0000448FDF7E9FDBDE808400248FDF752BA7D
:1056D0000C000020480A0020000D0020740F00205C
:1056E000104908B5032048600F4800680168C1F3FD
:1056F000001169B10168406800900B48FDF700FA9D
:105700000A48006840680A49C0F16400A1F8CA006C
:10571000642208490448FDF7BFFDBDE8084002487F
:10572000FDF728BA0C000020900A0020600D002030
:10573000740F00209E100020104808B50068016812
:10574000C1F3001179B10168406800900B48FDF782
:10575000D7F90B48006840680A49C0F16400A1F815
:10576000CA00FBF7AFFC642207490448FDF794FD2B
:10577000BDE808400148FDF7FDB90000D80A002047
:10578000200E0020740F002084050020FEE700009A
:105790000020074902460B18401C83F870200A2895
:1057A000F9DB00200A54401C6328FBDB7047000033
:1057B0001C07002019480021425C112A08D06229E8
:1057C00002DA491C6429F7DB90F868100A4606E003
:1057D00080F86810F8E7435C222B03D0491C63294A
:1057E000F9DB704780F86910891A80F86A10002187
:1057F00009E000BF90F8682013184A1C9A5C43180F
:10580000491C83F8702090F86A20521E8A42F1DC0D
:1058100090F87010C166FFF7BBBF00001C070020A6
:1058200010B5074C00224FF400612046FCF741FA06
:105830000022A1142046BDE81040FCF73ABA00004F
:105840000000024010B5064C0122D1022046FCF7B0
:1058500030FA20460122BDE810401103FCF729BAB6
:10586000000002407CB5044600201D461646002973
:105870000BD0491ECDE90041044B6A46294630460B
:1058800001F01EFD009A002111707CBDEF79000827
:105890000907090E002804DB00F1E02080F800145D
:1058A000704700F00F0000F1E02080F8141D7047F1
:1058B000004870475804002000B52DED048BB0EE71
:1058C000409AF0EE609A83B051EC190BFAF7C2FFE0
:1058D00041EC180B18EE100A18EE901A8DED008BA3
:1058E000002818BF0120084320F00040C0F17F606D
:1058F00000F1E040C00F14D019EE101A19EE900A12
:105900008DED009B002918BF0121084320F00040C5
:10591000C0F17F6000F1E040C00F04BF012000F043
:1059200017F8B0EE480A03B0F0EE680ABDEC048B3D
:1059300000BD02E008C8121F08C1002AFAD1704752
:105940007047002001E001C1121F002AFBD17047FF
:1059500001490860704700005804002070B50446F3
:1059600000256FF02F0608E02068411C21600078B8
:1059700005EB850106EB410145182068007800F031
:10598000C7F80028F0D1284670BD00002DE9FF5F60
:1059900082B00021DDE90430020DDDF840B00343A0
:1059A00018D044F61050A2F2FF3242431514119859
:1059B00001281FD0A5EB0B00401C5FEA000A4FF046
:1059C00000064E4FDFF83891B046504615D5CAF163
:1059D000000413E0119801244AA3012801D16FEAC1
:1059E0000B010298119AC0E90031C0E9024206B0E9
:1059F000BDE8F09FCBF10000DFE704460021404AFC
:105A0000491842EB0450CDE9001012E0E00707D03E
:105A100032463B4640464946FAF73BFE80468946B9
:105A200032463B4610461946FAF733FE06460F4605
:105A30006410002CEAD1DDE90401DDE90023BAF1AC
:105A4000000F06DAFAF725FE42464B46FAF721FE2A
:105A500005E0FAF790FE42464B46FAF78CFE044604
:105A60000E460022284BFAF78BFC03D84FF0FF308C
:105A7000014607E00022254B20463146FAF762FD39
:105A8000FAF739FF102409E0002C0ADB0A22002370
:105A9000FAF796FB039B30321A55641E50EA010256
:105AA000F2D1641C039AC4F111031444119A012A1F
:105AB00003D0012208430DD10AE0084304D000209E
:105AC0004FF0110B119072E7A3EB0B056D1E0DE06B
:105AD0005B4504DD4FF0000205F1010504E003DA47
